{
  "_format": "hh3-artifact-1",
  "contractName": "ManuscriptRegistry",
  "sourceName": "contracts/ManuscriptRegistry.sol",
  "abi": [
    {
      "inputs": [
        {
          "internalType": "uint8",
          "name": "max",
          "type": "uint8"
        }
      ],
      "stateMutability": "nonpayable",
      "type": "constructor"
    },
    {
      "inputs": [],
      "name": "ActiveManuscript",
      "type": "error"
    },
    {
      "inputs": [],
      "name": "ERC721EnumerableForbiddenBatchMint",
      "type": "error"
    },
    {
      "inputs": [
        {
          "internalType": "address",
          "name": "sender",
          "type": "address"
        },
        {
          "internalType": "uint256",
          "name": "tokenId",
          "type": "uint256"
        },
        {
          "internalType": "address",
          "name": "owner",
          "type": "address"
        }
      ],
      "name": "ERC721IncorrectOwner",
      "type": "error"
    },
    {
      "inputs": [
        {
          "internalType": "address",
          "name": "operator",
          "type": "address"
        },
        {
          "internalType": "uint256",
          "name": "tokenId",
          "type": "uint256"
        }
      ],
      "name": "ERC721InsufficientApproval",
      "type": "error"
    },
    {
      "inputs": [
        {
          "internalType": "address",
          "name": "approver",
          "type": "address"
        }
      ],
      "name": "ERC721InvalidApprover",
      "type": "error"
    },
    {
      "inputs": [
        {
          "internalType": "address",
          "name": "operator",
          "type": "address"
        }
      ],
      "name": "ERC721InvalidOperator",
      "type": "error"
    },
    {
      "inputs": [
        {
          "internalType": "address",
          "name": "owner",
          "type": "address"
        }
      ],
      "name": "ERC721InvalidOwner",
      "type": "error"
    },
    {
      "inputs": [
        {
          "internalType": "address",
          "name": "receiver",
          "type": "address"
        }
      ],
      "name": "ERC721InvalidReceiver",
      "type": "error"
    },
    {
      "inputs": [
        {
          "internalType": "address",
          "name": "sender",
          "type": "address"
        }
      ],
      "name": "ERC721InvalidSender",
      "type": "error"
    },
    {
      "inputs": [
        {
          "internalType": "uint256",
          "name": "tokenId",
          "type": "uint256"
        }
      ],
      "name": "ERC721NonexistentToken",
      "type": "error"
    },
    {
      "inputs": [
        {
          "internalType": "address",
          "name": "owner",
          "type": "address"
        },
        {
          "internalType": "uint256",
          "name": "index",
          "type": "uint256"
        }
      ],
      "name": "ERC721OutOfBoundsIndex",
      "type": "error"
    },
    {
      "inputs": [],
      "name": "EnforcedPause",
      "type": "error"
    },
    {
      "inputs": [],
      "name": "ExpectedPause",
      "type": "error"
    },
    {
      "inputs": [],
      "name": "ManuscriptAlreadyArchived",
      "type": "error"
    },
    {
      "inputs": [],
      "name": "ManuscriptAlreadyExists",
      "type": "error"
    },
    {
      "inputs": [],
      "name": "ManuscriptNotFound",
      "type": "error"
    },
    {
      "inputs": [],
      "name": "OriginManuscriptAlreadyArchived",
      "type": "error"
    },
    {
      "inputs": [],
      "name": "OriginManuscriptNotFound",
      "type": "error"
    },
    {
      "inputs": [
        {
          "internalType": "address",
          "name": "owner",
          "type": "address"
        }
      ],
      "name": "OwnableInvalidOwner",
      "type": "error"
    },
    {
      "inputs": [
        {
          "internalType": "address",
          "name": "account",
          "type": "address"
        }
      ],
      "name": "OwnableUnauthorizedAccount",
      "type": "error"
    },
    {
      "inputs": [],
      "name": "TitleEmpty",
      "type": "error"
    },
    {
      "inputs": [],
      "name": "TitleTooLong",
      "type": "error"
    },
    {
      "inputs": [],
      "name": "TransferNotAllowed",
      "type": "error"
    },
    {
      "inputs": [],
      "name": "Unauthorized",
      "type": "error"
    },
    {
      "anonymous": false,
      "inputs": [
        {
          "indexed": true,
          "internalType": "address",
          "name": "owner",
          "type": "address"
        },
        {
          "indexed": true,
          "internalType": "address",
          "name": "approved",
          "type": "address"
        },
        {
          "indexed": true,
          "internalType": "uint256",
          "name": "tokenId",
          "type": "uint256"
        }
      ],
      "name": "Approval",
      "type": "event"
    },
    {
      "anonymous": false,
      "inputs": [
        {
          "indexed": true,
          "internalType": "address",
          "name": "owner",
          "type": "address"
        },
        {
          "indexed": true,
          "internalType": "address",
          "name": "operator",
          "type": "address"
        },
        {
          "indexed": false,
          "internalType": "bool",
          "name": "approved",
          "type": "bool"
        }
      ],
      "name": "ApprovalForAll",
      "type": "event"
    },
    {
      "anonymous": false,
      "inputs": [
        {
          "indexed": true,
          "internalType": "uint256",
          "name": "tokenId",
          "type": "uint256"
        },
        {
          "indexed": true,
          "internalType": "address",
          "name": "author",
          "type": "address"
        },
        {
          "indexed": false,
          "internalType": "uint64",
          "name": "timestamp",
          "type": "uint64"
        }
      ],
      "name": "ManuscriptArchived",
      "type": "event"
    },
    {
      "anonymous": false,
      "inputs": [
        {
          "indexed": true,
          "internalType": "uint256",
          "name": "tokenId",
          "type": "uint256"
        },
        {
          "indexed": true,
          "internalType": "address",
          "name": "author",
          "type": "address"
        },
        {
          "indexed": false,
          "internalType": "bytes32",
          "name": "hash",
          "type": "bytes32"
        },
        {
          "indexed": false,
          "internalType": "string",
          "name": "title",
          "type": "string"
        },
        {
          "indexed": false,
          "internalType": "uint64",
          "name": "timestamp",
          "type": "uint64"
        },
        {
          "indexed": false,
          "internalType": "uint256",
          "name": "previousTokenId",
          "type": "uint256"
        },
        {
          "indexed": false,
          "internalType": "bool",
          "name": "hasParent",
          "type": "bool"
        }
      ],
      "name": "ManuscriptRegistered",
      "type": "event"
    },
    {
      "anonymous": false,
      "inputs": [
        {
          "indexed": true,
          "internalType": "uint256",
          "name": "tokenId",
          "type": "uint256"
        },
        {
          "indexed": true,
          "internalType": "address",
          "name": "author",
          "type": "address"
        },
        {
          "indexed": false,
          "internalType": "uint64",
          "name": "timestamp",
          "type": "uint64"
        }
      ],
      "name": "ManuscriptUnarchived",
      "type": "event"
    },
    {
      "anonymous": false,
      "inputs": [
        {
          "indexed": true,
          "internalType": "address",
          "name": "previousOwner",
          "type": "address"
        },
        {
          "indexed": true,
          "internalType": "address",
          "name": "newOwner",
          "type": "address"
        }
      ],
      "name": "OwnershipTransferred",
      "type": "event"
    },
    {
      "anonymous": false,
      "inputs": [
        {
          "indexed": false,
          "internalType": "address",
          "name": "account",
          "type": "address"
        }
      ],
      "name": "Paused",
      "type": "event"
    },
    {
      "anonymous": false,
      "inputs": [
        {
          "indexed": true,
          "internalType": "address",
          "name": "from",
          "type": "address"
        },
        {
          "indexed": true,
          "internalType": "address",
          "name": "to",
          "type": "address"
        },
        {
          "indexed": true,
          "internalType": "uint256",
          "name": "tokenId",
          "type": "uint256"
        }
      ],
      "name": "Transfer",
      "type": "event"
    },
    {
      "anonymous": false,
      "inputs": [
        {
          "indexed": false,
          "internalType": "address",
          "name": "account",
          "type": "address"
        }
      ],
      "name": "Unpaused",
      "type": "event"
    },
    {
      "inputs": [],
      "name": "MAX_MANUSCRIPTS_PER_QUERY",
      "outputs": [
        {
          "internalType": "uint8",
          "name": "",
          "type": "uint8"
        }
      ],
      "stateMutability": "view",
      "type": "function"
    },
    {
      "inputs": [
        {
          "internalType": "address",
          "name": "to",
          "type": "address"
        },
        {
          "internalType": "uint256",
          "name": "tokenId",
          "type": "uint256"
        }
      ],
      "name": "approve",
      "outputs": [],
      "stateMutability": "nonpayable",
      "type": "function"
    },
    {
      "inputs": [
        {
          "internalType": "uint256",
          "name": "tokenId",
          "type": "uint256"
        }
      ],
      "name": "archiveManuscript",
      "outputs": [],
      "stateMutability": "nonpayable",
      "type": "function"
    },
    {
      "inputs": [
        {
          "internalType": "address",
          "name": "owner",
          "type": "address"
        }
      ],
      "name": "balanceOf",
      "outputs": [
        {
          "internalType": "uint256",
          "name": "",
          "type": "uint256"
        }
      ],
      "stateMutability": "view",
      "type": "function"
    },
    {
      "inputs": [
        {
          "internalType": "uint256",
          "name": "tokenId",
          "type": "uint256"
        }
      ],
      "name": "getApproved",
      "outputs": [
        {
          "internalType": "address",
          "name": "",
          "type": "address"
        }
      ],
      "stateMutability": "view",
      "type": "function"
    },
    {
      "inputs": [
        {
          "internalType": "bytes32",
          "name": "hash",
          "type": "bytes32"
        }
      ],
      "name": "getManuscriptByHash",
      "outputs": [
        {
          "components": [
            {
              "internalType": "address",
              "name": "author",
              "type": "address"
            },
            {
              "internalType": "bool",
              "name": "archived",
              "type": "bool"
            },
            {
              "internalType": "bool",
              "name": "hasParent",
              "type": "bool"
            },
            {
              "internalType": "uint64",
              "name": "timestamp",
              "type": "uint64"
            },
            {
              "internalType": "uint256",
              "name": "tokenId",
              "type": "uint256"
            },
            {
              "internalType": "bytes32",
              "name": "hash",
              "type": "bytes32"
            },
            {
              "internalType": "uint256",
              "name": "previousTokenId",
              "type": "uint256"
            },
            {
              "internalType": "string",
              "name": "title",
              "type": "string"
            }
          ],
          "internalType": "struct ManuscriptRegistry.Manuscript",
          "name": "",
          "type": "tuple"
        }
      ],
      "stateMutability": "view",
      "type": "function"
    },
    {
      "inputs": [
        {
          "internalType": "uint256",
          "name": "tokenId",
          "type": "uint256"
        }
      ],
      "name": "getManuscriptByTokenId",
      "outputs": [
        {
          "components": [
            {
              "internalType": "address",
              "name": "author",
              "type": "address"
            },
            {
              "internalType": "bool",
              "name": "archived",
              "type": "bool"
            },
            {
              "internalType": "bool",
              "name": "hasParent",
              "type": "bool"
            },
            {
              "internalType": "uint64",
              "name": "timestamp",
              "type": "uint64"
            },
            {
              "internalType": "uint256",
              "name": "tokenId",
              "type": "uint256"
            },
            {
              "internalType": "bytes32",
              "name": "hash",
              "type": "bytes32"
            },
            {
              "internalType": "uint256",
              "name": "previousTokenId",
              "type": "uint256"
            },
            {
              "internalType": "string",
              "name": "title",
              "type": "string"
            }
          ],
          "internalType": "struct ManuscriptRegistry.Manuscript",
          "name": "",
          "type": "tuple"
        }
      ],
      "stateMutability": "view",
      "type": "function"
    },
    {
      "inputs": [
        {
          "internalType": "address",
          "name": "author",
          "type": "address"
        }
      ],
      "name": "getManuscriptsByAuthor",
      "outputs": [
        {
          "components": [
            {
              "internalType": "address",
              "name": "author",
              "type": "address"
            },
            {
              "internalType": "bool",
              "name": "archived",
              "type": "bool"
            },
            {
              "internalType": "bool",
              "name": "hasParent",
              "type": "bool"
            },
            {
              "internalType": "uint64",
              "name": "timestamp",
              "type": "uint64"
            },
            {
              "internalType": "uint256",
              "name": "tokenId",
              "type": "uint256"
            },
            {
              "internalType": "bytes32",
              "name": "hash",
              "type": "bytes32"
            },
            {
              "internalType": "uint256",
              "name": "previousTokenId",
              "type": "uint256"
            },
            {
              "internalType": "string",
              "name": "title",
              "type": "string"
            }
          ],
          "internalType": "struct ManuscriptRegistry.Manuscript[]",
          "name": "",
          "type": "tuple[]"
        }
      ],
      "stateMutability": "view",
      "type": "function"
    },
    {
      "inputs": [
        {
          "internalType": "address",
          "name": "owner",
          "type": "address"
        },
        {
          "internalType": "address",
          "name": "operator",
          "type": "address"
        }
      ],
      "name": "isApprovedForAll",
      "outputs": [
        {
          "internalType": "bool",
          "name": "",
          "type": "bool"
        }
      ],
      "stateMutability": "view",
      "type": "function"
    },
    {
      "inputs": [],
      "name": "name",
      "outputs": [
        {
          "internalType": "string",
          "name": "",
          "type": "string"
        }
      ],
      "stateMutability": "view",
      "type": "function"
    },
    {
      "inputs": [],
      "name": "owner",
      "outputs": [
        {
          "internalType": "address",
          "name": "",
          "type": "address"
        }
      ],
      "stateMutability": "view",
      "type": "function"
    },
    {
      "inputs": [
        {
          "internalType": "uint256",
          "name": "tokenId",
          "type": "uint256"
        }
      ],
      "name": "ownerOf",
      "outputs": [
        {
          "internalType": "address",
          "name": "",
          "type": "address"
        }
      ],
      "stateMutability": "view",
      "type": "function"
    },
    {
      "inputs": [],
      "name": "pause",
      "outputs": [],
      "stateMutability": "nonpayable",
      "type": "function"
    },
    {
      "inputs": [],
      "name": "paused",
      "outputs": [
        {
          "internalType": "bool",
          "name": "",
          "type": "bool"
        }
      ],
      "stateMutability": "view",
      "type": "function"
    },
    {
      "inputs": [
        {
          "internalType": "bytes32",
          "name": "hash",
          "type": "bytes32"
        },
        {
          "internalType": "string",
          "name": "title",
          "type": "string"
        }
      ],
      "name": "registerManuscript",
      "outputs": [],
      "stateMutability": "nonpayable",
      "type": "function"
    },
    {
      "inputs": [
        {
          "internalType": "bytes32",
          "name": "hash",
          "type": "bytes32"
        },
        {
          "internalType": "string",
          "name": "title",
          "type": "string"
        },
        {
          "internalType": "uint256",
          "name": "previousTokenId",
          "type": "uint256"
        }
      ],
      "name": "registerNewVersion",
      "outputs": [],
      "stateMutability": "nonpayable",
      "type": "function"
    },
    {
      "inputs": [],
      "name": "renounceOwnership",
      "outputs": [],
      "stateMutability": "nonpayable",
      "type": "function"
    },
    {
      "inputs": [
        {
          "internalType": "address",
          "name": "from",
          "type": "address"
        },
        {
          "internalType": "address",
          "name": "to",
          "type": "address"
        },
        {
          "internalType": "uint256",
          "name": "tokenId",
          "type": "uint256"
        }
      ],
      "name": "safeTransferFrom",
      "outputs": [],
      "stateMutability": "nonpayable",
      "type": "function"
    },
    {
      "inputs": [
        {
          "internalType": "address",
          "name": "from",
          "type": "address"
        },
        {
          "internalType": "address",
          "name": "to",
          "type": "address"
        },
        {
          "internalType": "uint256",
          "name": "tokenId",
          "type": "uint256"
        },
        {
          "internalType": "bytes",
          "name": "data",
          "type": "bytes"
        }
      ],
      "name": "safeTransferFrom",
      "outputs": [],
      "stateMutability": "nonpayable",
      "type": "function"
    },
    {
      "inputs": [
        {
          "internalType": "address",
          "name": "operator",
          "type": "address"
        },
        {
          "internalType": "bool",
          "name": "approved",
          "type": "bool"
        }
      ],
      "name": "setApprovalForAll",
      "outputs": [],
      "stateMutability": "nonpayable",
      "type": "function"
    },
    {
      "inputs": [
        {
          "internalType": "bytes4",
          "name": "interfaceId",
          "type": "bytes4"
        }
      ],
      "name": "supportsInterface",
      "outputs": [
        {
          "internalType": "bool",
          "name": "",
          "type": "bool"
        }
      ],
      "stateMutability": "view",
      "type": "function"
    },
    {
      "inputs": [],
      "name": "symbol",
      "outputs": [
        {
          "internalType": "string",
          "name": "",
          "type": "string"
        }
      ],
      "stateMutability": "view",
      "type": "function"
    },
    {
      "inputs": [
        {
          "internalType": "uint256",
          "name": "index",
          "type": "uint256"
        }
      ],
      "name": "tokenByIndex",
      "outputs": [
        {
          "internalType": "uint256",
          "name": "",
          "type": "uint256"
        }
      ],
      "stateMutability": "view",
      "type": "function"
    },
    {
      "inputs": [
        {
          "internalType": "address",
          "name": "owner",
          "type": "address"
        },
        {
          "internalType": "uint256",
          "name": "index",
          "type": "uint256"
        }
      ],
      "name": "tokenOfOwnerByIndex",
      "outputs": [
        {
          "internalType": "uint256",
          "name": "",
          "type": "uint256"
        }
      ],
      "stateMutability": "view",
      "type": "function"
    },
    {
      "inputs": [
        {
          "internalType": "uint256",
          "name": "tokenId",
          "type": "uint256"
        }
      ],
      "name": "tokenURI",
      "outputs": [
        {
          "internalType": "string",
          "name": "",
          "type": "string"
        }
      ],
      "stateMutability": "view",
      "type": "function"
    },
    {
      "inputs": [],
      "name": "totalSupply",
      "outputs": [
        {
          "internalType": "uint256",
          "name": "",
          "type": "uint256"
        }
      ],
      "stateMutability": "view",
      "type": "function"
    },
    {
      "inputs": [
        {
          "internalType": "address",
          "name": "from",
          "type": "address"
        },
        {
          "internalType": "address",
          "name": "to",
          "type": "address"
        },
        {
          "internalType": "uint256",
          "name": "tokenId",
          "type": "uint256"
        }
      ],
      "name": "transferFrom",
      "outputs": [],
      "stateMutability": "nonpayable",
      "type": "function"
    },
    {
      "inputs": [
        {
          "internalType": "address",
          "name": "newOwner",
          "type": "address"
        }
      ],
      "name": "transferOwnership",
      "outputs": [],
      "stateMutability": "nonpayable",
      "type": "function"
    },
    {
      "inputs": [
        {
          "internalType": "uint256",
          "name": "tokenId",
          "type": "uint256"
        }
      ],
      "name": "unarchiveManuscript",
      "outputs": [],
      "stateMutability": "nonpayable",
      "type": "function"
    },
    {
      "inputs": [],
      "name": "unpause",
      "outputs": [],
      "stateMutability": "nonpayable",
      "type": "function"
    }
  ],
  "bytecode": "0x60a06040526001600b55348015610014575f5ffd5b506040516127683803806127688339810160408190526100339161012e565b336040518060400160405280600b81526020016a2a3437ba3427b934b3b4b760a91b81525060405180604001604052806004815260200163151213d560e21b815250815f908161008391906101ed565b50600161009082826101ed565b5050506001600160a01b0381166100c057604051631e4fbdf760e01b81525f600482015260240160405180910390fd5b6100c9816100d5565b5060ff166080526102a7565b600a80546001600160a01b03838116610100818102610100600160a81b031985161790945560405193909204169182907f8be0079c531659141344cd1fd0a4f28419497f9722a3daafe3b4186f6b6457e0905f90a35050565b5f6020828403121561013e575f5ffd5b815160ff8116811461014e575f5ffd5b9392505050565b634e487b7160e01b5f52604160045260245ffd5b600181811c9082168061017d57607f821691505b60208210810361019b57634e487b7160e01b5f52602260045260245ffd5b50919050565b601f8211156101e857805f5260205f20601f840160051c810160208510156101c65750805b601f840160051c820191505b818110156101e5575f81556001016101d2565b50505b505050565b81516001600160401b0381111561020657610206610155565b61021a816102148454610169565b846101a1565b6020601f82116001811461024c575f83156102355750848201515b5f19600385901b1c1916600184901b1784556101e5565b5f84815260208120601f198516915b8281101561027b578785015182556020948501946001909201910161025b565b508482101561029857868401515f19600387901b60f8161c191681555b50505050600190811b01905550565b60805161249b6102cd5f395f8181610257015281816107170152610741015261249b5ff3fe608060405234801561000f575f5ffd5b50600436106101d1575f3560e01c806370a08231116100fe578063b88d4fde1161009e578063d67a18231161006e578063d67a1823146103f5578063e985e9c514610415578063f2fde38b14610428578063fcbb8c571461043b575f5ffd5b8063b88d4fde146103a9578063c1e2aa37146103bc578063c87b56dd146103cf578063d14d8bc8146103e2575f5ffd5b80638da5cb5b116100d95780638da5cb5b1461036557806395d89b411461037b578063a22cb46514610383578063a2e0a33e14610396575f5ffd5b806370a0823114610342578063715018a6146103555780638456cb591461035d575f5ffd5b8063280072cc1161017457806342842e0e1161014457806342842e0e146102fe5780634f6ccce7146103115780635c975abb146103245780636352211e1461032f575f5ffd5b8063280072cc146102b05780632f745c59146102c35780633cd1d913146102d65780633f4ba83a146102f6575f5ffd5b8063095ea7b3116101af578063095ea7b31461023d578063157fb5a61461025257806318160ddd1461028b57806323b872dd1461029d575f5ffd5b806301ffc9a7146101d557806306fdde03146101fd578063081812fc14610212575b5f5ffd5b6101e86101e3366004611dbe565b61044e565b60405190151581526020015b60405180910390f35b61020561045e565b6040516101f49190611e07565b610225610220366004611e19565b6104ed565b6040516001600160a01b0390911681526020016101f4565b61025061024b366004611e4b565b610514565b005b6102797f000000000000000000000000000000000000000000000000000000000000000081565b60405160ff90911681526020016101f4565b6008545b6040519081526020016101f4565b6102506102ab366004611e73565b610523565b6102506102be366004611e19565b6105b1565b61028f6102d1366004611e4b565b6106a3565b6102e96102e4366004611ead565b610706565b6040516101f49190611f49565b610250610923565b61025061030c366004611e73565b610935565b61028f61031f366004611e19565b610954565b600a5460ff166101e8565b61022561033d366004611e19565b6109a9565b61028f610350366004611ead565b6109b3565b6102506109f8565b610250610a09565b600a5461010090046001600160a01b0316610225565b610205610a19565b610250610391366004611fac565b610a28565b6102506103a4366004612029565b610a33565b6102506103b736600461208b565b610ae3565b6102506103ca366004611e19565b610afb565b6102056103dd366004611e19565b610be5565b6102506103f0366004612165565b610c56565b610408610403366004611e19565b610c6b565b6040516101f491906121ac565b6101e86104233660046121be565b610dc7565b610250610436366004611ead565b610df4565b610408610449366004611e19565b610e31565b5f61045882610e7b565b92915050565b60605f805461046c906121ef565b80601f0160208091040260200160405190810160405280929190818152602001828054610498906121ef565b80156104e35780601f106104ba576101008083540402835291602001916104e3565b820191905f5260205f20905b8154815290600101906020018083116104c657829003601f168201915b5050505050905090565b5f6104f782610e9f565b505f828152600460205260409020546001600160a01b0316610458565b61051f828233610ed7565b5050565b6001600160a01b03821661055157604051633250574960e11b81525f60048201526024015b60405180910390fd5b5f61055d838333610ee4565b9050836001600160a01b0316816001600160a01b0316146105ab576040516364283d7b60e01b81526001600160a01b0380861660048301526024820184905282166044820152606401610548565b50505050565b5f8181526002602052604090205481906001600160a01b03166105e7576040516314bd59cd60e21b815260040160405180910390fd5b336105f1826109a9565b6001600160a01b031614610617576040516282b42960e81b815260040160405180910390fd5b61061f610f44565b5f828152600c6020526040902054600160a01b900460ff16156106555760405163f127640760e01b815260040160405180910390fd5b61065e82610f68565b6040516001600160401b0342168152339083907f0bb9a77ccb7c4cd7e6321b4a4f45ddda12dc42db8ef537676bf742f9d2e61f25906020015b60405180910390a35050565b5f6106ad836109b3565b82106106de5760405163295f44f760e21b81526001600160a01b038416600482015260248101839052604401610548565b506001600160a01b03919091165f908152600660209081526040808320938352929052205490565b60605f610712836109b3565b90505f7f000000000000000000000000000000000000000000000000000000000000000060ff168210610768577f000000000000000000000000000000000000000000000000000000000000000060ff1661076a565b815b90505f816001600160401b0381111561078557610785612077565b6040519080825280602002602001820160405280156107be57816020015b6107ab611d55565b8152602001906001900390816107a35790505b5090505f5b8281101561091a57600c5f6107d888846106a3565b815260208082019290925260409081015f2081516101008101835281546001600160a01b0381168252600160a01b810460ff908116151595830195909552600160a81b8104909416151592810192909252600160b01b9092046001600160401b0316606082015260018201546080820152600282015460a0820152600382015460c082015260048201805491929160e084019190610875906121ef565b80601f01602080910402602001604051908101604052809291908181526020018280546108a1906121ef565b80156108ec5780601f106108c3576101008083540402835291602001916108ec565b820191905f5260205f20905b8154815290600101906020018083116108cf57829003601f168201915b50505050508152505082828151811061090757610907612227565b60209081029190910101526001016107c3565b50949350505050565b61092b611042565b610933611075565b565b61094f83838360405180602001604052805f815250610ae3565b505050565b5f61095e60085490565b82106109865760405163295f44f760e21b81525f600482015260248101839052604401610548565b6008828154811061099957610999612227565b905f5260205f2001549050919050565b5f61045882610e9f565b5f6001600160a01b0382166109dd576040516322718ad960e21b81525f6004820152602401610548565b506001600160a01b03165f9081526003602052604090205490565b610a00611042565b6109335f6110c7565b610a11611042565b610933611120565b60606001805461046c906121ef565b61051f33838361115d565b610a3b610f44565b5f818152600260205260409020546001600160a01b0316610a6f57604051635ddfbc8760e11b815260040160405180910390fd5b33610a79826109a9565b6001600160a01b031614610a9f576040516282b42960e81b815260040160405180910390fd5b5f818152600c6020526040902054600160a01b900460ff1615610ad557604051638c7828fb60e01b815260040160405180910390fd5b6105ab848484846001611224565b610aee848484610523565b6105ab3385858585611486565b5f8181526002602052604090205481906001600160a01b0316610b31576040516314bd59cd60e21b815260040160405180910390fd5b33610b3b826109a9565b6001600160a01b031614610b61576040516282b42960e81b815260040160405180910390fd5b610b69610f44565b5f828152600c6020526040902054600160a01b900460ff16610b9e576040516350509b4760e01b815260040160405180910390fd5b610ba8825f6115ae565b6040516001600160401b0342168152339083907f380f53c215c06a3052cbd6232d4a640236daa1311c4fc7a9e95c7914efdf62dc90602001610697565b6060610bf082610e9f565b505f610c0660408051602081019091525f815290565b90505f815111610c245760405180602001604052805f815250610c4f565b80610c2e846115d8565b604051602001610c3f929190612252565b6040516020818303038152906040525b9392505050565b610c5e610f44565b61094f8383835f5f611224565b610c73611d55565b5f828152600260205260409020546001600160a01b0316610ca7576040516314bd59cd60e21b815260040160405180910390fd5b5f828152600c602090815260409182902082516101008101845281546001600160a01b0381168252600160a01b810460ff908116151594830194909452600160a81b8104909316151593810193909352600160b01b9091046001600160401b0316606083015260018101546080830152600281015460a0830152600381015460c083015260048101805460e084019190610d40906121ef565b80601f0160208091040260200160405190810160405280929190818152602001828054610d6c906121ef565b8015610db75780601f10610d8e57610100808354040283529160200191610db7565b820191905f5260205f20905b815481529060010190602001808311610d9a57829003601f168201915b5050505050815250509050919050565b6001600160a01b039182165f90815260056020908152604080832093909416825291909152205460ff1690565b610dfc611042565b6001600160a01b038116610e2557604051631e4fbdf760e01b81525f6004820152602401610548565b610e2e816110c7565b50565b610e39611d55565b5f828152600d6020526040902054610e64576040516314bd59cd60e21b815260040160405180910390fd5b5f828152600d602052604090205461045890610c6b565b5f6001600160e01b0319821663780e9d6360e01b1480610458575061045882611667565b5f818152600260205260408120546001600160a01b03168061045857604051637e27328960e01b815260048101849052602401610548565b61094f83838360016116b6565b5f828152600260205260408120546001600160a01b03168015801590610f1257506001600160a01b03851615155b15610f3057604051638cd22d1960e01b815260040160405180910390fd5b610f3b8585856117ba565b95945050505050565b600a5460ff16156109335760405163d93c066560e01b815260040160405180910390fd5b610f738160016115ae565b5f818152600e6020908152604080832080548251818502810185019093528083529192909190830182828015610fc657602002820191905f5260205f20905b815481526020019060010190808311610fb2575b509394505f93505050505b815181101561094f57600c5f838381518110610fef57610fef612227565b602002602001015181526020019081526020015f205f0160149054906101000a900460ff1661103a5761103a82828151811061102d5761102d612227565b6020026020010151610f68565b600101610fd1565b600a546001600160a01b036101009091041633146109335760405163118cdaa760e01b8152336004820152602401610548565b61107d6117d6565b600a805460ff191690557f5db9ee0a495bf2e6ff9c91a7834c1ba4fdd244a5e8aa4e537bd38aeae4b073aa335b6040516001600160a01b03909116815260200160405180910390a1565b600a80546001600160a01b03838116610100818102610100600160a81b031985161790945560405193909204169182907f8be0079c531659141344cd1fd0a4f28419497f9722a3daafe3b4186f6b6457e0905f90a35050565b611128610f44565b600a805460ff191660011790557f62e78cea01bee320cd4e420270b5ea74000d11b0c9f74754ebdbfc544b05a2586110aa3390565b6001600160a01b0383166111865760405163a9fbf51f60e01b81525f6004820152602401610548565b6001600160a01b0382166111b857604051630b61174360e31b81526001600160a01b0383166004820152602401610548565b6001600160a01b038381165f81815260056020908152604080832094871680845294825291829020805460ff191686151590811790915591519182527f17307eab39ab6107e8899845ad3d59bd9653f200f220920489ca2b5937696c31910160405180910390a3505050565b828061124357604051635d0ff12d60e01b815260040160405180910390fd5b6064811115611265576040516324a25c5760e01b815260040160405180910390fd5b5f868152600d6020526040902054156112915760405163334129ed60e01b815260040160405180910390fd5b600b54429083156112bd575f858152600e60209081526040822080546001810182559083529120018190555b604051806101000160405280336001600160a01b031681526020015f151581526020018515158152602001836001600160401b0316815260200182815260200189815260200186815260200188888080601f0160208091040260200160405190810160405280939291908181526020018383808284375f920182905250939094525050838152600c602090815260409182902084518154928601519386015160608701516001600160401b0316600160b01b0267ffffffffffffffff60b01b19911515600160a81b029190911668ffffffffffffffffff60a81b19951515600160a01b026001600160a81b03199095166001600160a01b03909316929092179390931793909316929092171781556080830151600182015560a0830151600282015560c0830151600382015560e0830151909150600482019061140090826122aa565b5050505f888152600d60205260408120829055600b80549161142183612378565b919050555061143033826117f9565b336001600160a01b0316817f78d2183b21e05f7a2f19af32e667731390e06ac07000c78cfc5b879407b962aa8a8a8a878b8b60405161147496959493929190612390565b60405180910390a35050505050505050565b6001600160a01b0383163b156115a757604051630a85bd0160e11b81526001600160a01b0384169063150b7a02906114c89088908890879087906004016123e7565b6020604051808303815f875af1925050508015611502575060408051601f3d908101601f191682019092526114ff91810190612423565b60015b611569573d80801561152f576040519150601f19603f3d011682016040523d82523d5f602084013e611534565b606091505b5080515f0361156157604051633250574960e11b81526001600160a01b0385166004820152602401610548565b805160208201fd5b6001600160e01b03198116630a85bd0160e11b146115a557604051633250574960e11b81526001600160a01b0385166004820152602401610548565b505b5050505050565b5f918252600c60205260409091208054911515600160a01b0260ff60a01b19909216919091179055565b60605f6115e483611812565b60010190505f816001600160401b0381111561160257611602612077565b6040519080825280601f01601f19166020018201604052801561162c576020820181803683370190505b5090508181016020015b5f19016f181899199a1a9b1b9c1cb0b131b232b360811b600a86061a8153600a850494508461163657509392505050565b5f6001600160e01b031982166380ac58cd60e01b148061169757506001600160e01b03198216635b5e139f60e01b145b8061045857506301ffc9a760e01b6001600160e01b0319831614610458565b80806116ca57506001600160a01b03821615155b1561178b575f6116d984610e9f565b90506001600160a01b038316158015906117055750826001600160a01b0316816001600160a01b031614155b801561171857506117168184610dc7565b155b156117415760405163a9fbf51f60e01b81526001600160a01b0384166004820152602401610548565b81156117895783856001600160a01b0316826001600160a01b03167f8c5be1e5ebec7d5bd14f71427d1e84f3dd0314c0f7b2291e5b200ac8c7c3b92560405160405180910390a45b505b50505f90815260046020526040902080546001600160a01b0319166001600160a01b0392909216919091179055565b5f6117c3610f44565b6117ce8484846118e9565b949350505050565b600a5460ff1661093357604051638dfc202b60e01b815260040160405180910390fd5b61051f828260405180602001604052805f8152506119b4565b5f8072184f03e93ff9f4daa797ed6e38ed64bf6a1f0160401b83106118505772184f03e93ff9f4daa797ed6e38ed64bf6a1f0160401b830492506040015b6d04ee2d6d415b85acef8100000000831061187c576d04ee2d6d415b85acef8100000000830492506020015b662386f26fc10000831061189a57662386f26fc10000830492506010015b6305f5e10083106118b2576305f5e100830492506008015b61271083106118c657612710830492506004015b606483106118d8576064830492506002015b600a83106104585760010192915050565b5f5f6118f68585856119cb565b90506001600160a01b0381166119525761194d84600880545f838152600960205260408120829055600182018355919091527ff3f7a9fe364faab93b216da50a3214154f22a0a2b415b23a84c8169e8b636ee30155565b611975565b846001600160a01b0316816001600160a01b031614611975576119758185611abd565b6001600160a01b0385166119915761198c84611b3a565b6117ce565b846001600160a01b0316816001600160a01b0316146117ce576117ce8585611be1565b6119be8383611c2f565b61094f335f858585611486565b5f828152600260205260408120546001600160a01b03908116908316156119f7576119f7818486611c90565b6001600160a01b03811615611a3157611a125f855f5f6116b6565b6001600160a01b0381165f90815260036020526040902080545f190190555b6001600160a01b03851615611a5f576001600160a01b0385165f908152600360205260409020805460010190555b5f8481526002602052604080822080546001600160a01b0319166001600160a01b0389811691821790925591518793918516917fddf252ad1be2c89b69c2b068fc378daa952ba7f163c4a11628f55a4df523b3ef91a4949350505050565b5f611ac7836109b3565b5f838152600760209081526040808320546001600160a01b0388168452600690925290912091925090818314611b1c575f83815260208281526040808320548584528184208190558352600790915290208290555b5f938452600760209081526040808620869055938552525081205550565b6008545f90611b4b9060019061243e565b5f8381526009602052604081205460088054939450909284908110611b7257611b72612227565b905f5260205f20015490508060088381548110611b9157611b91612227565b5f918252602080832090910192909255828152600990915260408082208490558582528120556008805480611bc857611bc8612451565b600190038181905f5260205f20015f9055905550505050565b5f6001611bed846109b3565b611bf7919061243e565b6001600160a01b039093165f908152600660209081526040808320868452825280832085905593825260079052919091209190915550565b6001600160a01b038216611c5857604051633250574960e11b81525f6004820152602401610548565b5f611c6483835f610ee4565b90506001600160a01b0381161561094f576040516339e3563760e11b81525f6004820152602401610548565b611c9b838383611cf4565b61094f576001600160a01b038316611cc957604051637e27328960e01b815260048101829052602401610548565b60405163177e802f60e01b81526001600160a01b038316600482015260248101829052604401610548565b5f6001600160a01b038316158015906117ce5750826001600160a01b0316846001600160a01b03161480611d2d5750611d2d8484610dc7565b806117ce5750505f908152600460205260409020546001600160a01b03908116911614919050565b6040518061010001604052805f6001600160a01b031681526020015f151581526020015f151581526020015f6001600160401b031681526020015f81526020015f81526020015f8152602001606081525090565b6001600160e01b031981168114610e2e575f5ffd5b5f60208284031215611dce575f5ffd5b8135610c4f81611da9565b5f81518084528060208401602086015e5f602082860101526020601f19601f83011685010191505092915050565b602081525f610c4f6020830184611dd9565b5f60208284031215611e29575f5ffd5b5035919050565b80356001600160a01b0381168114611e46575f5ffd5b919050565b5f5f60408385031215611e5c575f5ffd5b611e6583611e30565b946020939093013593505050565b5f5f5f60608486031215611e85575f5ffd5b611e8e84611e30565b9250611e9c60208501611e30565b929592945050506040919091013590565b5f60208284031215611ebd575f5ffd5b610c4f82611e30565b80516001600160a01b031682526020808201511515908301526040808201515f91611ef49085018215159052565b506060820151611f0f60608501826001600160401b03169052565b506080820151608084015260a082015160a084015260c082015160c084015260e082015161010060e08501526117ce610100850182611dd9565b5f602082016020835280845180835260408501915060408160051b8601019250602086015f5b82811015611fa057603f19878603018452611f8b858351611ec6565b94506020938401939190910190600101611f6f565b50929695505050505050565b5f5f60408385031215611fbd575f5ffd5b611fc683611e30565b915060208301358015158114611fda575f5ffd5b809150509250929050565b5f5f83601f840112611ff5575f5ffd5b5081356001600160401b0381111561200b575f5ffd5b602083019150836020828501011115612022575f5ffd5b9250929050565b5f5f5f5f6060858703121561203c575f5ffd5b8435935060208501356001600160401b03811115612058575f5ffd5b61206487828801611fe5565b9598909750949560400135949350505050565b634e487b7160e01b5f52604160045260245ffd5b5f5f5f5f6080858703121561209e575f5ffd5b6120a785611e30565b93506120b560208601611e30565b92506040850135915060608501356001600160401b038111156120d6575f5ffd5b8501601f810187136120e6575f5ffd5b80356001600160401b038111156120ff576120ff612077565b604051601f8201601f19908116603f011681016001600160401b038111828210171561212d5761212d612077565b604052818152828201602001891015612144575f5ffd5b816020840160208301375f6020838301015280935050505092959194509250565b5f5f5f60408486031215612177575f5ffd5b8335925060208401356001600160401b03811115612193575f5ffd5b61219f86828701611fe5565b9497909650939450505050565b602081525f610c4f6020830184611ec6565b5f5f604083850312156121cf575f5ffd5b6121d883611e30565b91506121e660208401611e30565b90509250929050565b600181811c9082168061220357607f821691505b60208210810361222157634e487b7160e01b5f52602260045260245ffd5b50919050565b634e487b7160e01b5f52603260045260245ffd5b5f81518060208401855e5f93019283525090919050565b5f6117ce612260838661223b565b8461223b565b601f82111561094f57805f5260205f20601f840160051c8101602085101561228b5750805b601f840160051c820191505b818110156115a7575f8155600101612297565b81516001600160401b038111156122c3576122c3612077565b6122d7816122d184546121ef565b84612266565b6020601f821160018114612309575f83156122f25750848201515b5f19600385901b1c1916600184901b1784556115a7565b5f84815260208120601f198516915b828110156123385787850151825560209485019460019092019101612318565b508482101561235557868401515f19600387901b60f8161c191681555b50505050600190811b01905550565b634e487b7160e01b5f52601160045260245ffd5b5f6001820161238957612389612364565b5060010190565b86815260a060208201528460a0820152848660c08301375f60c086830101525f60c0601f19601f88011683010190506001600160401b03851660408301528360608301528215156080830152979650505050505050565b6001600160a01b03858116825284166020820152604081018390526080606082018190525f9061241990830184611dd9565b9695505050505050565b5f60208284031215612433575f5ffd5b8151610c4f81611da9565b8181038181111561045857610458612364565b634e487b7160e01b5f52603160045260245ffdfea2646970667358221220c8c0fc4752d6a324958c9e1753e5edb68667b90dd7dd606af26a2e021e56d8c664736f6c634300081c0033",
  "linkReferences": {},
  "deployedLinkReferences": {},
  "immutableReferences": {
    "8094": [
      {
        "length": 32,
        "start": 599
      },
      {
        "length": 32,
        "start": 1815
      },
      {
        "length": 32,
        "start": 1857
      }
    ]
  },
  "inputSourceName": "project/contracts/ManuscriptRegistry.sol",
  "buildInfoId": "solc-0_8_28-73333004bc1ac71eee5584b5fbe695e8ebc9b8e1"
}