{
  "_format": "hh3-artifact-1",
  "contractName": "ManuscriptRegistry",
  "sourceName": "contracts/ManuscriptRegistry.sol",
  "abi": [
    {
      "inputs": [
        {
          "internalType": "uint8",
          "name": "max",
          "type": "uint8"
        },
        {
          "internalType": "uint8",
          "name": "maxDepth",
          "type": "uint8"
        }
      ],
      "stateMutability": "nonpayable",
      "type": "constructor"
    },
    {
      "inputs": [],
      "name": "ActiveManuscript",
      "type": "error"
    },
    {
      "inputs": [],
      "name": "ChainTooDeep",
      "type": "error"
    },
    {
      "inputs": [],
      "name": "ERC721EnumerableForbiddenBatchMint",
      "type": "error"
    },
    {
      "inputs": [
        {
          "internalType": "address",
          "name": "sender",
          "type": "address"
        },
        {
          "internalType": "uint256",
          "name": "tokenId",
          "type": "uint256"
        },
        {
          "internalType": "address",
          "name": "owner",
          "type": "address"
        }
      ],
      "name": "ERC721IncorrectOwner",
      "type": "error"
    },
    {
      "inputs": [
        {
          "internalType": "address",
          "name": "operator",
          "type": "address"
        },
        {
          "internalType": "uint256",
          "name": "tokenId",
          "type": "uint256"
        }
      ],
      "name": "ERC721InsufficientApproval",
      "type": "error"
    },
    {
      "inputs": [
        {
          "internalType": "address",
          "name": "approver",
          "type": "address"
        }
      ],
      "name": "ERC721InvalidApprover",
      "type": "error"
    },
    {
      "inputs": [
        {
          "internalType": "address",
          "name": "operator",
          "type": "address"
        }
      ],
      "name": "ERC721InvalidOperator",
      "type": "error"
    },
    {
      "inputs": [
        {
          "internalType": "address",
          "name": "owner",
          "type": "address"
        }
      ],
      "name": "ERC721InvalidOwner",
      "type": "error"
    },
    {
      "inputs": [
        {
          "internalType": "address",
          "name": "receiver",
          "type": "address"
        }
      ],
      "name": "ERC721InvalidReceiver",
      "type": "error"
    },
    {
      "inputs": [
        {
          "internalType": "address",
          "name": "sender",
          "type": "address"
        }
      ],
      "name": "ERC721InvalidSender",
      "type": "error"
    },
    {
      "inputs": [
        {
          "internalType": "uint256",
          "name": "tokenId",
          "type": "uint256"
        }
      ],
      "name": "ERC721NonexistentToken",
      "type": "error"
    },
    {
      "inputs": [
        {
          "internalType": "address",
          "name": "owner",
          "type": "address"
        },
        {
          "internalType": "uint256",
          "name": "index",
          "type": "uint256"
        }
      ],
      "name": "ERC721OutOfBoundsIndex",
      "type": "error"
    },
    {
      "inputs": [],
      "name": "EnforcedPause",
      "type": "error"
    },
    {
      "inputs": [],
      "name": "ExpectedPause",
      "type": "error"
    },
    {
      "inputs": [],
      "name": "ManuscriptAlreadyArchived",
      "type": "error"
    },
    {
      "inputs": [],
      "name": "ManuscriptAlreadyExists",
      "type": "error"
    },
    {
      "inputs": [],
      "name": "ManuscriptNotFound",
      "type": "error"
    },
    {
      "inputs": [],
      "name": "OriginManuscriptAlreadyArchived",
      "type": "error"
    },
    {
      "inputs": [],
      "name": "OriginManuscriptNotFound",
      "type": "error"
    },
    {
      "inputs": [
        {
          "internalType": "address",
          "name": "owner",
          "type": "address"
        }
      ],
      "name": "OwnableInvalidOwner",
      "type": "error"
    },
    {
      "inputs": [
        {
          "internalType": "address",
          "name": "account",
          "type": "address"
        }
      ],
      "name": "OwnableUnauthorizedAccount",
      "type": "error"
    },
    {
      "inputs": [],
      "name": "TitleEmpty",
      "type": "error"
    },
    {
      "inputs": [],
      "name": "TitleTooLong",
      "type": "error"
    },
    {
      "inputs": [],
      "name": "TransferNotAllowed",
      "type": "error"
    },
    {
      "inputs": [],
      "name": "Unauthorized",
      "type": "error"
    },
    {
      "anonymous": false,
      "inputs": [
        {
          "indexed": true,
          "internalType": "address",
          "name": "owner",
          "type": "address"
        },
        {
          "indexed": true,
          "internalType": "address",
          "name": "approved",
          "type": "address"
        },
        {
          "indexed": true,
          "internalType": "uint256",
          "name": "tokenId",
          "type": "uint256"
        }
      ],
      "name": "Approval",
      "type": "event"
    },
    {
      "anonymous": false,
      "inputs": [
        {
          "indexed": true,
          "internalType": "address",
          "name": "owner",
          "type": "address"
        },
        {
          "indexed": true,
          "internalType": "address",
          "name": "operator",
          "type": "address"
        },
        {
          "indexed": false,
          "internalType": "bool",
          "name": "approved",
          "type": "bool"
        }
      ],
      "name": "ApprovalForAll",
      "type": "event"
    },
    {
      "anonymous": false,
      "inputs": [
        {
          "indexed": true,
          "internalType": "uint256",
          "name": "tokenId",
          "type": "uint256"
        },
        {
          "indexed": true,
          "internalType": "address",
          "name": "author",
          "type": "address"
        },
        {
          "indexed": false,
          "internalType": "uint64",
          "name": "timestamp",
          "type": "uint64"
        }
      ],
      "name": "ManuscriptArchived",
      "type": "event"
    },
    {
      "anonymous": false,
      "inputs": [
        {
          "indexed": true,
          "internalType": "uint256",
          "name": "tokenId",
          "type": "uint256"
        },
        {
          "indexed": true,
          "internalType": "address",
          "name": "author",
          "type": "address"
        },
        {
          "indexed": false,
          "internalType": "bytes32",
          "name": "hash",
          "type": "bytes32"
        },
        {
          "indexed": false,
          "internalType": "string",
          "name": "title",
          "type": "string"
        },
        {
          "indexed": false,
          "internalType": "uint64",
          "name": "timestamp",
          "type": "uint64"
        },
        {
          "indexed": false,
          "internalType": "uint256",
          "name": "previousTokenId",
          "type": "uint256"
        }
      ],
      "name": "ManuscriptRegistered",
      "type": "event"
    },
    {
      "anonymous": false,
      "inputs": [
        {
          "indexed": true,
          "internalType": "uint256",
          "name": "tokenId",
          "type": "uint256"
        },
        {
          "indexed": true,
          "internalType": "address",
          "name": "author",
          "type": "address"
        },
        {
          "indexed": false,
          "internalType": "uint64",
          "name": "timestamp",
          "type": "uint64"
        }
      ],
      "name": "ManuscriptUnarchived",
      "type": "event"
    },
    {
      "anonymous": false,
      "inputs": [
        {
          "indexed": true,
          "internalType": "address",
          "name": "previousOwner",
          "type": "address"
        },
        {
          "indexed": true,
          "internalType": "address",
          "name": "newOwner",
          "type": "address"
        }
      ],
      "name": "OwnershipTransferred",
      "type": "event"
    },
    {
      "anonymous": false,
      "inputs": [
        {
          "indexed": false,
          "internalType": "address",
          "name": "account",
          "type": "address"
        }
      ],
      "name": "Paused",
      "type": "event"
    },
    {
      "anonymous": false,
      "inputs": [
        {
          "indexed": true,
          "internalType": "address",
          "name": "from",
          "type": "address"
        },
        {
          "indexed": true,
          "internalType": "address",
          "name": "to",
          "type": "address"
        },
        {
          "indexed": true,
          "internalType": "uint256",
          "name": "tokenId",
          "type": "uint256"
        }
      ],
      "name": "Transfer",
      "type": "event"
    },
    {
      "anonymous": false,
      "inputs": [
        {
          "indexed": false,
          "internalType": "address",
          "name": "account",
          "type": "address"
        }
      ],
      "name": "Unpaused",
      "type": "event"
    },
    {
      "inputs": [],
      "name": "MAX_CHAIN_DEPTH",
      "outputs": [
        {
          "internalType": "uint8",
          "name": "",
          "type": "uint8"
        }
      ],
      "stateMutability": "view",
      "type": "function"
    },
    {
      "inputs": [],
      "name": "MAX_MANUSCRIPTS_PER_QUERY",
      "outputs": [
        {
          "internalType": "uint8",
          "name": "",
          "type": "uint8"
        }
      ],
      "stateMutability": "view",
      "type": "function"
    },
    {
      "inputs": [
        {
          "internalType": "address",
          "name": "to",
          "type": "address"
        },
        {
          "internalType": "uint256",
          "name": "tokenId",
          "type": "uint256"
        }
      ],
      "name": "approve",
      "outputs": [],
      "stateMutability": "nonpayable",
      "type": "function"
    },
    {
      "inputs": [
        {
          "internalType": "uint256",
          "name": "tokenId",
          "type": "uint256"
        }
      ],
      "name": "archiveManuscript",
      "outputs": [],
      "stateMutability": "nonpayable",
      "type": "function"
    },
    {
      "inputs": [
        {
          "internalType": "address",
          "name": "owner",
          "type": "address"
        }
      ],
      "name": "balanceOf",
      "outputs": [
        {
          "internalType": "uint256",
          "name": "",
          "type": "uint256"
        }
      ],
      "stateMutability": "view",
      "type": "function"
    },
    {
      "inputs": [
        {
          "internalType": "uint256",
          "name": "tokenId",
          "type": "uint256"
        }
      ],
      "name": "getApproved",
      "outputs": [
        {
          "internalType": "address",
          "name": "",
          "type": "address"
        }
      ],
      "stateMutability": "view",
      "type": "function"
    },
    {
      "inputs": [
        {
          "internalType": "bytes32",
          "name": "hash",
          "type": "bytes32"
        }
      ],
      "name": "getManuscriptByHash",
      "outputs": [
        {
          "components": [
            {
              "internalType": "address",
              "name": "author",
              "type": "address"
            },
            {
              "internalType": "bool",
              "name": "archived",
              "type": "bool"
            },
            {
              "internalType": "uint64",
              "name": "timestamp",
              "type": "uint64"
            },
            {
              "internalType": "uint256",
              "name": "tokenId",
              "type": "uint256"
            },
            {
              "internalType": "bytes32",
              "name": "hash",
              "type": "bytes32"
            },
            {
              "internalType": "uint256",
              "name": "previousTokenId",
              "type": "uint256"
            },
            {
              "internalType": "string",
              "name": "title",
              "type": "string"
            }
          ],
          "internalType": "struct ManuscriptRegistry.Manuscript",
          "name": "",
          "type": "tuple"
        }
      ],
      "stateMutability": "view",
      "type": "function"
    },
    {
      "inputs": [
        {
          "internalType": "uint256",
          "name": "tokenId",
          "type": "uint256"
        }
      ],
      "name": "getManuscriptByTokenId",
      "outputs": [
        {
          "components": [
            {
              "internalType": "address",
              "name": "author",
              "type": "address"
            },
            {
              "internalType": "bool",
              "name": "archived",
              "type": "bool"
            },
            {
              "internalType": "uint64",
              "name": "timestamp",
              "type": "uint64"
            },
            {
              "internalType": "uint256",
              "name": "tokenId",
              "type": "uint256"
            },
            {
              "internalType": "bytes32",
              "name": "hash",
              "type": "bytes32"
            },
            {
              "internalType": "uint256",
              "name": "previousTokenId",
              "type": "uint256"
            },
            {
              "internalType": "string",
              "name": "title",
              "type": "string"
            }
          ],
          "internalType": "struct ManuscriptRegistry.Manuscript",
          "name": "",
          "type": "tuple"
        }
      ],
      "stateMutability": "view",
      "type": "function"
    },
    {
      "inputs": [
        {
          "internalType": "address",
          "name": "author",
          "type": "address"
        }
      ],
      "name": "getManuscriptsByAuthor",
      "outputs": [
        {
          "components": [
            {
              "internalType": "address",
              "name": "author",
              "type": "address"
            },
            {
              "internalType": "bool",
              "name": "archived",
              "type": "bool"
            },
            {
              "internalType": "uint64",
              "name": "timestamp",
              "type": "uint64"
            },
            {
              "internalType": "uint256",
              "name": "tokenId",
              "type": "uint256"
            },
            {
              "internalType": "bytes32",
              "name": "hash",
              "type": "bytes32"
            },
            {
              "internalType": "uint256",
              "name": "previousTokenId",
              "type": "uint256"
            },
            {
              "internalType": "string",
              "name": "title",
              "type": "string"
            }
          ],
          "internalType": "struct ManuscriptRegistry.Manuscript[]",
          "name": "",
          "type": "tuple[]"
        }
      ],
      "stateMutability": "view",
      "type": "function"
    },
    {
      "inputs": [
        {
          "internalType": "address",
          "name": "owner",
          "type": "address"
        },
        {
          "internalType": "address",
          "name": "operator",
          "type": "address"
        }
      ],
      "name": "isApprovedForAll",
      "outputs": [
        {
          "internalType": "bool",
          "name": "",
          "type": "bool"
        }
      ],
      "stateMutability": "view",
      "type": "function"
    },
    {
      "inputs": [],
      "name": "name",
      "outputs": [
        {
          "internalType": "string",
          "name": "",
          "type": "string"
        }
      ],
      "stateMutability": "view",
      "type": "function"
    },
    {
      "inputs": [],
      "name": "owner",
      "outputs": [
        {
          "internalType": "address",
          "name": "",
          "type": "address"
        }
      ],
      "stateMutability": "view",
      "type": "function"
    },
    {
      "inputs": [
        {
          "internalType": "uint256",
          "name": "tokenId",
          "type": "uint256"
        }
      ],
      "name": "ownerOf",
      "outputs": [
        {
          "internalType": "address",
          "name": "",
          "type": "address"
        }
      ],
      "stateMutability": "view",
      "type": "function"
    },
    {
      "inputs": [],
      "name": "pause",
      "outputs": [],
      "stateMutability": "nonpayable",
      "type": "function"
    },
    {
      "inputs": [],
      "name": "paused",
      "outputs": [
        {
          "internalType": "bool",
          "name": "",
          "type": "bool"
        }
      ],
      "stateMutability": "view",
      "type": "function"
    },
    {
      "inputs": [
        {
          "internalType": "bytes32",
          "name": "hash",
          "type": "bytes32"
        },
        {
          "internalType": "string",
          "name": "title",
          "type": "string"
        }
      ],
      "name": "registerManuscript",
      "outputs": [],
      "stateMutability": "nonpayable",
      "type": "function"
    },
    {
      "inputs": [
        {
          "internalType": "bytes32",
          "name": "hash",
          "type": "bytes32"
        },
        {
          "internalType": "string",
          "name": "title",
          "type": "string"
        },
        {
          "internalType": "uint256",
          "name": "previousTokenId",
          "type": "uint256"
        }
      ],
      "name": "registerNewVersion",
      "outputs": [],
      "stateMutability": "nonpayable",
      "type": "function"
    },
    {
      "inputs": [],
      "name": "renounceOwnership",
      "outputs": [],
      "stateMutability": "nonpayable",
      "type": "function"
    },
    {
      "inputs": [
        {
          "internalType": "address",
          "name": "from",
          "type": "address"
        },
        {
          "internalType": "address",
          "name": "to",
          "type": "address"
        },
        {
          "internalType": "uint256",
          "name": "tokenId",
          "type": "uint256"
        }
      ],
      "name": "safeTransferFrom",
      "outputs": [],
      "stateMutability": "nonpayable",
      "type": "function"
    },
    {
      "inputs": [
        {
          "internalType": "address",
          "name": "from",
          "type": "address"
        },
        {
          "internalType": "address",
          "name": "to",
          "type": "address"
        },
        {
          "internalType": "uint256",
          "name": "tokenId",
          "type": "uint256"
        },
        {
          "internalType": "bytes",
          "name": "data",
          "type": "bytes"
        }
      ],
      "name": "safeTransferFrom",
      "outputs": [],
      "stateMutability": "nonpayable",
      "type": "function"
    },
    {
      "inputs": [
        {
          "internalType": "address",
          "name": "operator",
          "type": "address"
        },
        {
          "internalType": "bool",
          "name": "approved",
          "type": "bool"
        }
      ],
      "name": "setApprovalForAll",
      "outputs": [],
      "stateMutability": "nonpayable",
      "type": "function"
    },
    {
      "inputs": [
        {
          "internalType": "bytes4",
          "name": "interfaceId",
          "type": "bytes4"
        }
      ],
      "name": "supportsInterface",
      "outputs": [
        {
          "internalType": "bool",
          "name": "",
          "type": "bool"
        }
      ],
      "stateMutability": "view",
      "type": "function"
    },
    {
      "inputs": [],
      "name": "symbol",
      "outputs": [
        {
          "internalType": "string",
          "name": "",
          "type": "string"
        }
      ],
      "stateMutability": "view",
      "type": "function"
    },
    {
      "inputs": [
        {
          "internalType": "uint256",
          "name": "index",
          "type": "uint256"
        }
      ],
      "name": "tokenByIndex",
      "outputs": [
        {
          "internalType": "uint256",
          "name": "",
          "type": "uint256"
        }
      ],
      "stateMutability": "view",
      "type": "function"
    },
    {
      "inputs": [
        {
          "internalType": "address",
          "name": "owner",
          "type": "address"
        },
        {
          "internalType": "uint256",
          "name": "index",
          "type": "uint256"
        }
      ],
      "name": "tokenOfOwnerByIndex",
      "outputs": [
        {
          "internalType": "uint256",
          "name": "",
          "type": "uint256"
        }
      ],
      "stateMutability": "view",
      "type": "function"
    },
    {
      "inputs": [
        {
          "internalType": "uint256",
          "name": "tokenId",
          "type": "uint256"
        }
      ],
      "name": "tokenURI",
      "outputs": [
        {
          "internalType": "string",
          "name": "",
          "type": "string"
        }
      ],
      "stateMutability": "view",
      "type": "function"
    },
    {
      "inputs": [],
      "name": "totalSupply",
      "outputs": [
        {
          "internalType": "uint256",
          "name": "",
          "type": "uint256"
        }
      ],
      "stateMutability": "view",
      "type": "function"
    },
    {
      "inputs": [
        {
          "internalType": "address",
          "name": "from",
          "type": "address"
        },
        {
          "internalType": "address",
          "name": "to",
          "type": "address"
        },
        {
          "internalType": "uint256",
          "name": "tokenId",
          "type": "uint256"
        }
      ],
      "name": "transferFrom",
      "outputs": [],
      "stateMutability": "nonpayable",
      "type": "function"
    },
    {
      "inputs": [
        {
          "internalType": "address",
          "name": "newOwner",
          "type": "address"
        }
      ],
      "name": "transferOwnership",
      "outputs": [],
      "stateMutability": "nonpayable",
      "type": "function"
    },
    {
      "inputs": [
        {
          "internalType": "uint256",
          "name": "tokenId",
          "type": "uint256"
        }
      ],
      "name": "unarchiveManuscript",
      "outputs": [],
      "stateMutability": "nonpayable",
      "type": "function"
    },
    {
      "inputs": [],
      "name": "unpause",
      "outputs": [],
      "stateMutability": "nonpayable",
      "type": "function"
    }
  ],
  "bytecode": "0x60c06040526001600b55348015610014575f5ffd5b506040516148c33803806148c383398181016040528101906100369190610266565b336040518060400160405280600b81526020017f54686f74684f726967696e0000000000000000000000000000000000000000008152506040518060400160405280600481526020017f54484f5400000000000000000000000000000000000000000000000000000000815250815f90816100b191906104e1565b5080600190816100c191906104e1565b5050505f73ffffffffffffffffffffffffffffffffffffffff168173ffffffffffffffffffffffffffffffffffffffff1603610134575f6040517f1e4fbdf700000000000000000000000000000000000000000000000000000000815260040161012b91906105ef565b60405180910390fd5b6101438161016760201b60201c565b508160ff1660808160ff16815250508060ff1660a08160ff16815250505050610608565b5f600a60019054906101000a900473ffffffffffffffffffffffffffffffffffffffff16905081600a60016101000a81548173ffffffffffffffffffffffffffffffffffffffff021916908373ffffffffffffffffffffffffffffffffffffffff1602179055508173ffffffffffffffffffffffffffffffffffffffff168173ffffffffffffffffffffffffffffffffffffffff167f8be0079c531659141344cd1fd0a4f28419497f9722a3daafe3b4186f6b6457e060405160405180910390a35050565b5f5ffd5b5f60ff82169050919050565b61024581610230565b811461024f575f5ffd5b50565b5f815190506102608161023c565b92915050565b5f5f6040838503121561027c5761027b61022c565b5b5f61028985828601610252565b925050602061029a85828601610252565b9150509250929050565b5f81519050919050565b7f4e487b71000000000000000000000000000000000000000000000000000000005f52604160045260245ffd5b7f4e487b71000000000000000000000000000000000000000000000000000000005f52602260045260245ffd5b5f600282049050600182168061031f57607f821691505b602082108103610332576103316102db565b5b50919050565b5f819050815f5260205f209050919050565b5f6020601f8301049050919050565b5f82821b905092915050565b5f600883026103947fffffffffffffffffffffffffffffffffffffffffffffffffffffffffffffffff82610359565b61039e8683610359565b95508019841693508086168417925050509392505050565b5f819050919050565b5f819050919050565b5f6103e26103dd6103d8846103b6565b6103bf565b6103b6565b9050919050565b5f819050919050565b6103fb836103c8565b61040f610407826103e9565b848454610365565b825550505050565b5f5f905090565b610426610417565b6104318184846103f2565b505050565b5b81811015610454576104495f8261041e565b600181019050610437565b5050565b601f8211156104995761046a81610338565b6104738461034a565b81016020851015610482578190505b61049661048e8561034a565b830182610436565b50505b505050565b5f82821c905092915050565b5f6104b95f198460080261049e565b1980831691505092915050565b5f6104d183836104aa565b9150826002028217905092915050565b6104ea826102a4565b67ffffffffffffffff811115610503576105026102ae565b5b61050d8254610308565b610518828285610458565b5f60209050601f831160018114610549575f8415610537578287015190505b61054185826104c6565b8655506105a8565b601f19841661055786610338565b5f5b8281101561057e57848901518255600182019150602085019450602081019050610559565b8683101561059b5784890151610597601f8916826104aa565b8355505b6001600288020188555050505b505050505050565b5f73ffffffffffffffffffffffffffffffffffffffff82169050919050565b5f6105d9826105b0565b9050919050565b6105e9816105cf565b82525050565b5f6020820190506106025f8301846105e0565b92915050565b60805160a05161428561063e5f395f8181610ef3015261103901525f81816106d201528181610a310152610a5b01526142855ff3fe608060405234801561000f575f5ffd5b50600436106101e3575f3560e01c806370a082311161010d578063b88d4fde116100a0578063d67a18231161006f578063d67a182314610553578063e985e9c514610583578063f2fde38b146105b3578063fcbb8c57146105cf576101e3565b8063b88d4fde146104cf578063c1e2aa37146104eb578063c87b56dd14610507578063d14d8bc814610537576101e3565b806395d89b41116100dc57806395d89b411461045b5780639641df3d14610479578063a22cb46514610497578063a2e0a33e146104b3576101e3565b806370a08231146103f9578063715018a6146104295780638456cb59146104335780638da5cb5b1461043d576101e3565b8063280072cc1161018557806342842e0e1161015457806342842e0e1461035f5780634f6ccce71461037b5780635c975abb146103ab5780636352211e146103c9576101e3565b8063280072cc146102d95780632f745c59146102f55780633cd1d913146103255780633f4ba83a14610355576101e3565b8063095ea7b3116101c1578063095ea7b314610265578063157fb5a61461028157806318160ddd1461029f57806323b872dd146102bd576101e3565b806301ffc9a7146101e757806306fdde0314610217578063081812fc14610235575b5f5ffd5b61020160048036038101906101fc919061324d565b6105ff565b60405161020e9190613292565b60405180910390f35b61021f610610565b60405161022c919061331b565b60405180910390f35b61024f600480360381019061024a919061336e565b61069f565b60405161025c91906133d8565b60405180910390f35b61027f600480360381019061027a919061341b565b6106ba565b005b6102896106d0565b6040516102969190613474565b60405180910390f35b6102a76106f4565b6040516102b4919061349c565b60405180910390f35b6102d760048036038101906102d291906134b5565b610700565b005b6102f360048036038101906102ee919061336e565b6107ff565b005b61030f600480360381019061030a919061341b565b610919565b60405161031c919061349c565b60405180910390f35b61033f600480360381019061033a9190613505565b6109bd565b60405161034c9190613733565b60405180910390f35b61035d610c94565b005b610379600480360381019061037491906134b5565b610ca6565b005b6103956004803603810190610390919061336e565b610cc5565b6040516103a2919061349c565b60405180910390f35b6103b3610d37565b6040516103c09190613292565b60405180910390f35b6103e360048036038101906103de919061336e565b610d4c565b6040516103f091906133d8565b60405180910390f35b610413600480360381019061040e9190613505565b610d5d565b604051610420919061349c565b60405180910390f35b610431610e13565b005b61043b610e26565b005b610445610e38565b60405161045291906133d8565b60405180910390f35b610463610e61565b604051610470919061331b565b60405180910390f35b610481610ef1565b60405161048e9190613474565b60405180910390f35b6104b160048036038101906104ac919061377d565b610f15565b005b6104cd60048036038101906104c89190613846565b610f2b565b005b6104e960048036038101906104e491906139df565b6110ef565b005b6105056004803603810190610500919061336e565b611114565b005b610521600480360381019061051c919061336e565b61122d565b60405161052e919061331b565b60405180910390f35b610551600480360381019061054c9190613a5f565b611293565b005b61056d6004803603810190610568919061336e565b6112ad565b60405161057a9190613b55565b60405180910390f35b61059d60048036038101906105989190613b75565b611464565b6040516105aa9190613292565b60405180910390f35b6105cd60048036038101906105c89190613505565b6114f2565b005b6105e960048036038101906105e49190613bb3565b611576565b6040516105f69190613b55565b60405180910390f35b5f610609826115de565b9050919050565b60605f805461061e90613c0b565b80601f016020809104026020016040519081016040528092919081815260200182805461064a90613c0b565b80156106955780601f1061066c57610100808354040283529160200191610695565b820191905f5260205f20905b81548152906001019060200180831161067857829003601f168201915b5050505050905090565b5f6106a982611657565b506106b3826116dd565b9050919050565b6106cc82826106c7611716565b61171d565b5050565b7f000000000000000000000000000000000000000000000000000000000000000081565b5f600880549050905090565b5f73ffffffffffffffffffffffffffffffffffffffff168273ffffffffffffffffffffffffffffffffffffffff1603610770575f6040517f64a0ae9200000000000000000000000000000000000000000000000000000000815260040161076791906133d8565b60405180910390fd5b5f610783838361077e611716565b61172f565b90508373ffffffffffffffffffffffffffffffffffffffff168173ffffffffffffffffffffffffffffffffffffffff16146107f9578382826040517f64283d7b0000000000000000000000000000000000000000000000000000000081526004016107f093929190613c3b565b60405180910390fd5b50505050565b80610809816117f0565b61083f576040517f52f5673400000000000000000000000000000000000000000000000000000000815260040160405180910390fd5b3373ffffffffffffffffffffffffffffffffffffffff1661085f82610d4c565b73ffffffffffffffffffffffffffffffffffffffff16146108ac576040517f82b4290000000000000000000000000000000000000000000000000000000000815260040160405180910390fd5b6108b4611830565b600f5f8381526020019081526020015f205f0160149054906101000a900460ff161561090c576040517ff127640700000000000000000000000000000000000000000000000000000000815260040160405180910390fd5b61091582611871565b5050565b5f61092383610d5d565b82106109685782826040517fa57d13dc00000000000000000000000000000000000000000000000000000000815260040161095f929190613c70565b60405180910390fd5b60065f8473ffffffffffffffffffffffffffffffffffffffff1673ffffffffffffffffffffffffffffffffffffffff1681526020019081526020015f205f8381526020019081526020015f2054905092915050565b60605f6109c983610d5d565b90505f8103610a2e575f67ffffffffffffffff8111156109ec576109eb6138bb565b5b604051908082528060200260200182016040528015610a2557816020015b610a1261318e565b815260200190600190039081610a0a5790505b50915050610c8f565b5f7f000000000000000000000000000000000000000000000000000000000000000060ff168210610a82577f000000000000000000000000000000000000000000000000000000000000000060ff16610a84565b815b90505f8167ffffffffffffffff811115610aa157610aa06138bb565b5b604051908082528060200260200182016040528015610ada57816020015b610ac761318e565b815260200190600190039081610abf5790505b5090505f5f90505b82811015610c8757600f5f610af78884610919565b81526020019081526020015f206040518060e00160405290815f82015f9054906101000a900473ffffffffffffffffffffffffffffffffffffffff1673ffffffffffffffffffffffffffffffffffffffff1673ffffffffffffffffffffffffffffffffffffffff1681526020015f820160149054906101000a900460ff161515151581526020015f820160159054906101000a900467ffffffffffffffff1667ffffffffffffffff1667ffffffffffffffff168152602001600182015481526020016002820154815260200160038201548152602001600482018054610bdc90613c0b565b80601f0160208091040260200160405190810160405280929190818152602001828054610c0890613c0b565b8015610c535780601f10610c2a57610100808354040283529160200191610c53565b820191905f5260205f20905b815481529060010190602001808311610c3657829003601f168201915b505050505081525050828281518110610c6f57610c6e613c97565b5b60200260200101819052508080600101915050610ae2565b508093505050505b919050565b610c9c6119af565b610ca4611a36565b565b610cc083838360405180602001604052805f8152506110ef565b505050565b5f610cce6106f4565b8210610d13575f826040517fa57d13dc000000000000000000000000000000000000000000000000000000008152600401610d0a929190613c70565b60405180910390fd5b60088281548110610d2757610d26613c97565b5b905f5260205f2001549050919050565b5f600a5f9054906101000a900460ff16905090565b5f610d5682611657565b9050919050565b5f5f73ffffffffffffffffffffffffffffffffffffffff168273ffffffffffffffffffffffffffffffffffffffff1603610dce575f6040517f89c62b64000000000000000000000000000000000000000000000000000000008152600401610dc591906133d8565b60405180910390fd5b60035f8373ffffffffffffffffffffffffffffffffffffffff1673ffffffffffffffffffffffffffffffffffffffff1681526020019081526020015f20549050919050565b610e1b6119af565b610e245f611a97565b565b610e2e6119af565b610e36611b5c565b565b5f600a60019054906101000a900473ffffffffffffffffffffffffffffffffffffffff16905090565b606060018054610e7090613c0b565b80601f0160208091040260200160405190810160405280929190818152602001828054610e9c90613c0b565b8015610ee75780601f10610ebe57610100808354040283529160200191610ee7565b820191905f5260205f20905b815481529060010190602001808311610eca57829003601f168201915b5050505050905090565b7f000000000000000000000000000000000000000000000000000000000000000081565b610f27610f20611716565b8383611bbe565b5050565b610f33611830565b610f3c816117f0565b610f72576040517fbbbf790e00000000000000000000000000000000000000000000000000000000815260040160405180910390fd5b3373ffffffffffffffffffffffffffffffffffffffff16610f9282610d4c565b73ffffffffffffffffffffffffffffffffffffffff1614610fdf576040517f82b4290000000000000000000000000000000000000000000000000000000000815260040160405180910390fd5b600f5f8281526020019081526020015f205f0160149054906101000a900460ff1615611037576040517f8c7828fb00000000000000000000000000000000000000000000000000000000815260040160405180910390fd5b7f000000000000000000000000000000000000000000000000000000000000000060ff16600d5f8381526020019081526020015f205f9054906101000a900460ff1660ff16106110b3576040517fd93ed10100000000000000000000000000000000000000000000000000000000815260040160405180910390fd5b6110e9848484846001600d5f8881526020019081526020015f205f9054906101000a900460ff166110e49190613cf1565b611d97565b50505050565b6110fa848484610700565b61110e611105611716565b858585856120cb565b50505050565b8061111e816117f0565b611154576040517f52f5673400000000000000000000000000000000000000000000000000000000815260040160405180910390fd5b3373ffffffffffffffffffffffffffffffffffffffff1661117482610d4c565b73ffffffffffffffffffffffffffffffffffffffff16146111c1576040517f82b4290000000000000000000000000000000000000000000000000000000000815260040160405180910390fd5b6111c9611830565b600f5f8381526020019081526020015f205f0160149054906101000a900460ff16611220576040517f50509b4700000000000000000000000000000000000000000000000000000000815260040160405180910390fd5b61122982612277565b5050565b606061123882611657565b505f611242612338565b90505f8151116112605760405180602001604052805f81525061128b565b8061126a8461234e565b60405160200161127b929190613d5f565b6040516020818303038152906040525b915050919050565b61129b611830565b6112a88383835f5f611d97565b505050565b6112b561318e565b6112be826117f0565b6112f4576040517f52f5673400000000000000000000000000000000000000000000000000000000815260040160405180910390fd5b600f5f8381526020019081526020015f206040518060e00160405290815f82015f9054906101000a900473ffffffffffffffffffffffffffffffffffffffff1673ffffffffffffffffffffffffffffffffffffffff1673ffffffffffffffffffffffffffffffffffffffff1681526020015f820160149054906101000a900460ff161515151581526020015f820160159054906101000a900467ffffffffffffffff1667ffffffffffffffff1667ffffffffffffffff1681526020016001820154815260200160028201548152602001600382015481526020016004820180546113dd90613c0b565b80601f016020809104026020016040519081016040528092919081815260200182805461140990613c0b565b80156114545780601f1061142b57610100808354040283529160200191611454565b820191905f5260205f20905b81548152906001019060200180831161143757829003601f168201915b5050505050815250509050919050565b5f60055f8473ffffffffffffffffffffffffffffffffffffffff1673ffffffffffffffffffffffffffffffffffffffff1681526020019081526020015f205f8373ffffffffffffffffffffffffffffffffffffffff1673ffffffffffffffffffffffffffffffffffffffff1681526020019081526020015f205f9054906101000a900460ff16905092915050565b6114fa6119af565b5f73ffffffffffffffffffffffffffffffffffffffff168173ffffffffffffffffffffffffffffffffffffffff160361156a575f6040517f1e4fbdf700000000000000000000000000000000000000000000000000000000815260040161156191906133d8565b60405180910390fd5b61157381611a97565b50565b61157e61318e565b61158782612418565b6115bd576040517f52f5673400000000000000000000000000000000000000000000000000000000815260040160405180910390fd5b6115d7600e5f8481526020019081526020015f20546112ad565b9050919050565b5f7f780e9d63000000000000000000000000000000000000000000000000000000007bffffffffffffffffffffffffffffffffffffffffffffffffffffffff1916827bffffffffffffffffffffffffffffffffffffffffffffffffffffffff19161480611650575061164f82612435565b5b9050919050565b5f5f61166283612516565b90505f73ffffffffffffffffffffffffffffffffffffffff168173ffffffffffffffffffffffffffffffffffffffff16036116d457826040517f7e2732890000000000000000000000000000000000000000000000000000000081526004016116cb919061349c565b60405180910390fd5b80915050919050565b5f60045f8381526020019081526020015f205f9054906101000a900473ffffffffffffffffffffffffffffffffffffffff169050919050565b5f33905090565b61172a838383600161254f565b505050565b5f5f61173a84612516565b90505f73ffffffffffffffffffffffffffffffffffffffff168173ffffffffffffffffffffffffffffffffffffffff16141580156117a457505f73ffffffffffffffffffffffffffffffffffffffff168573ffffffffffffffffffffffffffffffffffffffff1614155b156117db576040517f8cd22d1900000000000000000000000000000000000000000000000000000000815260040160405180910390fd5b6117e685858561270e565b9150509392505050565b5f5f73ffffffffffffffffffffffffffffffffffffffff1661181183612516565b73ffffffffffffffffffffffffffffffffffffffff1614159050919050565b611838610d37565b1561186f576040517fd93c066500000000000000000000000000000000000000000000000000000000815260040160405180910390fd5b565b61187c81600161272b565b3373ffffffffffffffffffffffffffffffffffffffff16817f0bb9a77ccb7c4cd7e6321b4a4f45ddda12dc42db8ef537676bf742f9d2e61f25426040516118c39190613d91565b60405180910390a35f600c5f8381526020019081526020015f2080548060200260200160405190810160405280929190818152602001828054801561192557602002820191905f5260205f20905b815481526020019060010190808311611911575b505050505090505f5f90505b81518110156119aa57600f5f8383815181106119505761194f613c97565b5b602002602001015181526020019081526020015f205f0160149054906101000a900460ff1661199d5761199c82828151811061198f5761198e613c97565b5b6020026020010151611871565b5b8080600101915050611931565b505050565b6119b7611716565b73ffffffffffffffffffffffffffffffffffffffff166119d5610e38565b73ffffffffffffffffffffffffffffffffffffffff1614611a34576119f8611716565b6040517f118cdaa7000000000000000000000000000000000000000000000000000000008152600401611a2b91906133d8565b60405180910390fd5b565b611a3e61275a565b5f600a5f6101000a81548160ff0219169083151502179055507f5db9ee0a495bf2e6ff9c91a7834c1ba4fdd244a5e8aa4e537bd38aeae4b073aa611a80611716565b604051611a8d91906133d8565b60405180910390a1565b5f600a60019054906101000a900473ffffffffffffffffffffffffffffffffffffffff16905081600a60016101000a81548173ffffffffffffffffffffffffffffffffffffffff021916908373ffffffffffffffffffffffffffffffffffffffff1602179055508173ffffffffffffffffffffffffffffffffffffffff168173ffffffffffffffffffffffffffffffffffffffff167f8be0079c531659141344cd1fd0a4f28419497f9722a3daafe3b4186f6b6457e060405160405180910390a35050565b611b64611830565b6001600a5f6101000a81548160ff0219169083151502179055507f62e78cea01bee320cd4e420270b5ea74000d11b0c9f74754ebdbfc544b05a258611ba7611716565b604051611bb491906133d8565b60405180910390a1565b5f73ffffffffffffffffffffffffffffffffffffffff168373ffffffffffffffffffffffffffffffffffffffff1603611c2e575f6040517fa9fbf51f000000000000000000000000000000000000000000000000000000008152600401611c2591906133d8565b60405180910390fd5b5f73ffffffffffffffffffffffffffffffffffffffff168273ffffffffffffffffffffffffffffffffffffffff1603611c9e57816040517f5b08ba18000000000000000000000000000000000000000000000000000000008152600401611c9591906133d8565b60405180910390fd5b8060055f8573ffffffffffffffffffffffffffffffffffffffff1673ffffffffffffffffffffffffffffffffffffffff1681526020019081526020015f205f8473ffffffffffffffffffffffffffffffffffffffff1673ffffffffffffffffffffffffffffffffffffffff1681526020019081526020015f205f6101000a81548160ff0219169083151502179055508173ffffffffffffffffffffffffffffffffffffffff168373ffffffffffffffffffffffffffffffffffffffff167f17307eab39ab6107e8899845ad3d59bd9653f200f220920489ca2b5937696c3183604051611d8a9190613292565b60405180910390a3505050565b5f8484905090505f8111611dd7576040517f5d0ff12d00000000000000000000000000000000000000000000000000000000815260040160405180910390fd5b6064811115611e12576040517f24a25c5700000000000000000000000000000000000000000000000000000000815260040160405180910390fd5b611e1b86612418565b15611e52576040517f334129ed00000000000000000000000000000000000000000000000000000000815260040160405180910390fd5b5f4290505f600b54905083600d5f8381526020019081526020015f205f6101000a81548160ff021916908360ff1602179055505f8514611ec257600c5f8681526020019081526020015f2081908060018154018082558091505060019003905f5260205f20015f90919091909150555b6040518060e001604052803373ffffffffffffffffffffffffffffffffffffffff1681526020015f151581526020018367ffffffffffffffff16815260200182815260200189815260200186815260200188888080601f0160208091040260200160405190810160405280939291908181526020018383808284375f81840152601f19601f82011690508083019250505050505050815250600f5f8381526020019081526020015f205f820151815f015f6101000a81548173ffffffffffffffffffffffffffffffffffffffff021916908373ffffffffffffffffffffffffffffffffffffffff1602179055506020820151815f0160146101000a81548160ff0219169083151502179055506040820151815f0160156101000a81548167ffffffffffffffff021916908367ffffffffffffffff160217905550606082015181600101556080820151816002015560a0820151816003015560c082015181600401908161202f9190613f4a565b5090505080600e5f8a81526020019081526020015f2081905550600b5f81548092919061205b90614019565b919050555061206a338261279a565b3373ffffffffffffffffffffffffffffffffffffffff16817facf9a2728815bf807a2e388a42e71358cd7a551d00806bba7262a00653c0010d8a8a8a878b6040516120b995949392919061409b565b60405180910390a35050505050505050565b5f8373ffffffffffffffffffffffffffffffffffffffff163b1115612270578273ffffffffffffffffffffffffffffffffffffffff1663150b7a02868685856040518563ffffffff1660e01b81526004016121299493929190614139565b6020604051808303815f875af192505050801561216457506040513d601f19601f820116820180604052508101906121619190614197565b60015b6121e5573d805f8114612192576040519150601f19603f3d011682016040523d82523d5f602084013e612197565b606091505b505f8151036121dd57836040517f64a0ae920000000000000000000000000000000000000000000000000000000081526004016121d491906133d8565b60405180910390fd5b805160208201fd5b63150b7a0260e01b7bffffffffffffffffffffffffffffffffffffffffffffffffffffffff1916817bffffffffffffffffffffffffffffffffffffffffffffffffffffffff19161461226e57836040517f64a0ae9200000000000000000000000000000000000000000000000000000000815260040161226591906133d8565b60405180910390fd5b505b5050505050565b612281815f61272b565b3373ffffffffffffffffffffffffffffffffffffffff16817f380f53c215c06a3052cbd6232d4a640236daa1311c4fc7a9e95c7914efdf62dc426040516122c89190613d91565b60405180910390a35f600f5f8381526020019081526020015f206003015414612335575f600f5f8381526020019081526020015f20600301549050600f5f8281526020019081526020015f205f0160149054906101000a900460ff16156123335761233281612277565b5b505b50565b606060405180602001604052805f815250905090565b60605f600161235c846127b7565b0190505f8167ffffffffffffffff81111561237a576123796138bb565b5b6040519080825280601f01601f1916602001820160405280156123ac5781602001600182028036833780820191505090505b5090505f82602083010190505b60011561240d578080600190039150507f3031323334353637383961626364656600000000000000000000000000000000600a86061a8153600a8581612402576124016141c2565b5b0494505f85036123b9575b819350505050919050565b5f5f600e5f8481526020019081526020015f205414159050919050565b5f7f80ac58cd000000000000000000000000000000000000000000000000000000007bffffffffffffffffffffffffffffffffffffffffffffffffffffffff1916827bffffffffffffffffffffffffffffffffffffffffffffffffffffffff191614806124ff57507f5b5e139f000000000000000000000000000000000000000000000000000000007bffffffffffffffffffffffffffffffffffffffffffffffffffffffff1916827bffffffffffffffffffffffffffffffffffffffffffffffffffffffff1916145b8061250f575061250e82612908565b5b9050919050565b5f60025f8381526020019081526020015f205f9054906101000a900473ffffffffffffffffffffffffffffffffffffffff169050919050565b808061258757505f73ffffffffffffffffffffffffffffffffffffffff168273ffffffffffffffffffffffffffffffffffffffff1614155b156126b9575f61259684611657565b90505f73ffffffffffffffffffffffffffffffffffffffff168373ffffffffffffffffffffffffffffffffffffffff161415801561260057508273ffffffffffffffffffffffffffffffffffffffff168173ffffffffffffffffffffffffffffffffffffffff1614155b801561261357506126118184611464565b155b1561265557826040517fa9fbf51f00000000000000000000000000000000000000000000000000000000815260040161264c91906133d8565b60405180910390fd5b81156126b757838573ffffffffffffffffffffffffffffffffffffffff168273ffffffffffffffffffffffffffffffffffffffff167f8c5be1e5ebec7d5bd14f71427d1e84f3dd0314c0f7b2291e5b200ac8c7c3b92560405160405180910390a45b505b8360045f8581526020019081526020015f205f6101000a81548173ffffffffffffffffffffffffffffffffffffffff021916908373ffffffffffffffffffffffffffffffffffffffff16021790555050505050565b5f612717611830565b612722848484612971565b90509392505050565b80600f5f8481526020019081526020015f205f0160146101000a81548160ff0219169083151502179055505050565b612762610d37565b612798576040517f8dfc202b00000000000000000000000000000000000000000000000000000000815260040160405180910390fd5b565b6127b3828260405180602001604052805f815250612a8b565b5050565b5f5f5f90507a184f03e93ff9f4daa797ed6e38ed64bf6a1f0100000000000000008310612813577a184f03e93ff9f4daa797ed6e38ed64bf6a1f0100000000000000008381612809576128086141c2565b5b0492506040810190505b6d04ee2d6d415b85acef81000000008310612850576d04ee2d6d415b85acef81000000008381612846576128456141c2565b5b0492506020810190505b662386f26fc10000831061287f57662386f26fc100008381612875576128746141c2565b5b0492506010810190505b6305f5e10083106128a8576305f5e100838161289e5761289d6141c2565b5b0492506008810190505b61271083106128cd5761271083816128c3576128c26141c2565b5b0492506004810190505b606483106128f057606483816128e6576128e56141c2565b5b0492506002810190505b600a83106128ff576001810190505b80915050919050565b5f7f01ffc9a7000000000000000000000000000000000000000000000000000000007bffffffffffffffffffffffffffffffffffffffffffffffffffffffff1916827bffffffffffffffffffffffffffffffffffffffffffffffffffffffff1916149050919050565b5f5f61297e858585612aae565b90505f73ffffffffffffffffffffffffffffffffffffffff168173ffffffffffffffffffffffffffffffffffffffff16036129c1576129bc84612cb9565b612a00565b8473ffffffffffffffffffffffffffffffffffffffff168173ffffffffffffffffffffffffffffffffffffffff16146129ff576129fe8185612cfd565b5b5b5f73ffffffffffffffffffffffffffffffffffffffff168573ffffffffffffffffffffffffffffffffffffffff1603612a4157612a3c84612dd4565b612a80565b8473ffffffffffffffffffffffffffffffffffffffff168173ffffffffffffffffffffffffffffffffffffffff1614612a7f57612a7e8585612e94565b5b5b809150509392505050565b612a958383612f18565b612aa9612aa0611716565b5f8585856120cb565b505050565b5f5f612ab984612516565b90505f73ffffffffffffffffffffffffffffffffffffffff168373ffffffffffffffffffffffffffffffffffffffff1614612afa57612af981848661300b565b5b5f73ffffffffffffffffffffffffffffffffffffffff168173ffffffffffffffffffffffffffffffffffffffff1614612b8557612b395f855f5f61254f565b600160035f8373ffffffffffffffffffffffffffffffffffffffff1673ffffffffffffffffffffffffffffffffffffffff1681526020019081526020015f205f82825403925050819055505b5f73ffffffffffffffffffffffffffffffffffffffff168573ffffffffffffffffffffffffffffffffffffffff1614612c0457600160035f8773ffffffffffffffffffffffffffffffffffffffff1673ffffffffffffffffffffffffffffffffffffffff1681526020019081526020015f205f82825401925050819055505b8460025f8681526020019081526020015f205f6101000a81548173ffffffffffffffffffffffffffffffffffffffff021916908373ffffffffffffffffffffffffffffffffffffffff160217905550838573ffffffffffffffffffffffffffffffffffffffff168273ffffffffffffffffffffffffffffffffffffffff167fddf252ad1be2c89b69c2b068fc378daa952ba7f163c4a11628f55a4df523b3ef60405160405180910390a4809150509392505050565b60088054905060095f8381526020019081526020015f2081905550600881908060018154018082558091505060019003905f5260205f20015f909190919091505550565b5f612d0783610d5d565b90505f60075f8481526020019081526020015f205490505f60065f8673ffffffffffffffffffffffffffffffffffffffff1673ffffffffffffffffffffffffffffffffffffffff1681526020019081526020015f209050828214612da6575f815f8581526020019081526020015f2054905080825f8581526020019081526020015f20819055508260075f8381526020019081526020015f2081905550505b60075f8581526020019081526020015f205f9055805f8481526020019081526020015f205f90555050505050565b5f6001600880549050612de791906141ef565b90505f60095f8481526020019081526020015f205490505f60088381548110612e1357612e12613c97565b5b905f5260205f20015490508060088381548110612e3357612e32613c97565b5b905f5260205f2001819055508160095f8381526020019081526020015f208190555060095f8581526020019081526020015f205f90556008805480612e7b57612e7a614222565b5b600190038181905f5260205f20015f9055905550505050565b5f6001612ea084610d5d565b612eaa91906141ef565b90508160065f8573ffffffffffffffffffffffffffffffffffffffff1673ffffffffffffffffffffffffffffffffffffffff1681526020019081526020015f205f8381526020019081526020015f20819055508060075f8481526020019081526020015f2081905550505050565b5f73ffffffffffffffffffffffffffffffffffffffff168273ffffffffffffffffffffffffffffffffffffffff1603612f88575f6040517f64a0ae92000000000000000000000000000000000000000000000000000000008152600401612f7f91906133d8565b60405180910390fd5b5f612f9483835f61172f565b90505f73ffffffffffffffffffffffffffffffffffffffff168173ffffffffffffffffffffffffffffffffffffffff1614613006575f6040517f73c6ac6e000000000000000000000000000000000000000000000000000000008152600401612ffd91906133d8565b60405180910390fd5b505050565b6130168383836130ce565b6130c9575f73ffffffffffffffffffffffffffffffffffffffff168373ffffffffffffffffffffffffffffffffffffffff160361308a57806040517f7e273289000000000000000000000000000000000000000000000000000000008152600401613081919061349c565b60405180910390fd5b81816040517f177e802f0000000000000000000000000000000000000000000000000000000081526004016130c0929190613c70565b60405180910390fd5b505050565b5f5f73ffffffffffffffffffffffffffffffffffffffff168373ffffffffffffffffffffffffffffffffffffffff161415801561318557508273ffffffffffffffffffffffffffffffffffffffff168473ffffffffffffffffffffffffffffffffffffffff16148061314657506131458484611464565b5b8061318457508273ffffffffffffffffffffffffffffffffffffffff1661316c836116dd565b73ffffffffffffffffffffffffffffffffffffffff16145b5b90509392505050565b6040518060e001604052805f73ffffffffffffffffffffffffffffffffffffffff1681526020015f151581526020015f67ffffffffffffffff1681526020015f81526020015f81526020015f8152602001606081525090565b5f604051905090565b5f5ffd5b5f5ffd5b5f7fffffffff0000000000000000000000000000000000000000000000000000000082169050919050565b61322c816131f8565b8114613236575f5ffd5b50565b5f8135905061324781613223565b92915050565b5f60208284031215613262576132616131f0565b5b5f61326f84828501613239565b91505092915050565b5f8115159050919050565b61328c81613278565b82525050565b5f6020820190506132a55f830184613283565b92915050565b5f81519050919050565b5f82825260208201905092915050565b8281835e5f83830152505050565b5f601f19601f8301169050919050565b5f6132ed826132ab565b6132f781856132b5565b93506133078185602086016132c5565b613310816132d3565b840191505092915050565b5f6020820190508181035f83015261333381846132e3565b905092915050565b5f819050919050565b61334d8161333b565b8114613357575f5ffd5b50565b5f8135905061336881613344565b92915050565b5f60208284031215613383576133826131f0565b5b5f6133908482850161335a565b91505092915050565b5f73ffffffffffffffffffffffffffffffffffffffff82169050919050565b5f6133c282613399565b9050919050565b6133d2816133b8565b82525050565b5f6020820190506133eb5f8301846133c9565b92915050565b6133fa816133b8565b8114613404575f5ffd5b50565b5f81359050613415816133f1565b92915050565b5f5f60408385031215613431576134306131f0565b5b5f61343e85828601613407565b925050602061344f8582860161335a565b9150509250929050565b5f60ff82169050919050565b61346e81613459565b82525050565b5f6020820190506134875f830184613465565b92915050565b6134968161333b565b82525050565b5f6020820190506134af5f83018461348d565b92915050565b5f5f5f606084860312156134cc576134cb6131f0565b5b5f6134d986828701613407565b93505060206134ea86828701613407565b92505060406134fb8682870161335a565b9150509250925092565b5f6020828403121561351a576135196131f0565b5b5f61352784828501613407565b91505092915050565b5f81519050919050565b5f82825260208201905092915050565b5f819050602082019050919050565b613562816133b8565b82525050565b61357181613278565b82525050565b5f67ffffffffffffffff82169050919050565b61359381613577565b82525050565b6135a28161333b565b82525050565b5f819050919050565b6135ba816135a8565b82525050565b5f82825260208201905092915050565b5f6135da826132ab565b6135e481856135c0565b93506135f48185602086016132c5565b6135fd816132d3565b840191505092915050565b5f60e083015f83015161361d5f860182613559565b5060208301516136306020860182613568565b506040830151613643604086018261358a565b5060608301516136566060860182613599565b50608083015161366960808601826135b1565b5060a083015161367c60a0860182613599565b5060c083015184820360c086015261369482826135d0565b9150508091505092915050565b5f6136ac8383613608565b905092915050565b5f602082019050919050565b5f6136ca82613530565b6136d4818561353a565b9350836020820285016136e68561354a565b805f5b85811015613721578484038952815161370285826136a1565b945061370d836136b4565b925060208a019950506001810190506136e9565b50829750879550505050505092915050565b5f6020820190508181035f83015261374b81846136c0565b905092915050565b61375c81613278565b8114613766575f5ffd5b50565b5f8135905061377781613753565b92915050565b5f5f60408385031215613793576137926131f0565b5b5f6137a085828601613407565b92505060206137b185828601613769565b9150509250929050565b6137c4816135a8565b81146137ce575f5ffd5b50565b5f813590506137df816137bb565b92915050565b5f5ffd5b5f5ffd5b5f5ffd5b5f5f83601f840112613806576138056137e5565b5b8235905067ffffffffffffffff811115613823576138226137e9565b5b60208301915083600182028301111561383f5761383e6137ed565b5b9250929050565b5f5f5f5f6060858703121561385e5761385d6131f0565b5b5f61386b878288016137d1565b945050602085013567ffffffffffffffff81111561388c5761388b6131f4565b5b613898878288016137f1565b935093505060406138ab8782880161335a565b91505092959194509250565b5f5ffd5b7f4e487b71000000000000000000000000000000000000000000000000000000005f52604160045260245ffd5b6138f1826132d3565b810181811067ffffffffffffffff821117156139105761390f6138bb565b5b80604052505050565b5f6139226131e7565b905061392e82826138e8565b919050565b5f67ffffffffffffffff82111561394d5761394c6138bb565b5b613956826132d3565b9050602081019050919050565b828183375f83830152505050565b5f61398361397e84613933565b613919565b90508281526020810184848401111561399f5761399e6138b7565b5b6139aa848285613963565b509392505050565b5f82601f8301126139c6576139c56137e5565b5b81356139d6848260208601613971565b91505092915050565b5f5f5f5f608085870312156139f7576139f66131f0565b5b5f613a0487828801613407565b9450506020613a1587828801613407565b9350506040613a268782880161335a565b925050606085013567ffffffffffffffff811115613a4757613a466131f4565b5b613a53878288016139b2565b91505092959194509250565b5f5f5f60408486031215613a7657613a756131f0565b5b5f613a83868287016137d1565b935050602084013567ffffffffffffffff811115613aa457613aa36131f4565b5b613ab0868287016137f1565b92509250509250925092565b5f60e083015f830151613ad15f860182613559565b506020830151613ae46020860182613568565b506040830151613af7604086018261358a565b506060830151613b0a6060860182613599565b506080830151613b1d60808601826135b1565b5060a0830151613b3060a0860182613599565b5060c083015184820360c0860152613b4882826135d0565b9150508091505092915050565b5f6020820190508181035f830152613b6d8184613abc565b905092915050565b5f5f60408385031215613b8b57613b8a6131f0565b5b5f613b9885828601613407565b9250506020613ba985828601613407565b9150509250929050565b5f60208284031215613bc857613bc76131f0565b5b5f613bd5848285016137d1565b91505092915050565b7f4e487b71000000000000000000000000000000000000000000000000000000005f52602260045260245ffd5b5f6002820490506001821680613c2257607f821691505b602082108103613c3557613c34613bde565b5b50919050565b5f606082019050613c4e5f8301866133c9565b613c5b602083018561348d565b613c6860408301846133c9565b949350505050565b5f604082019050613c835f8301856133c9565b613c90602083018461348d565b9392505050565b7f4e487b71000000000000000000000000000000000000000000000000000000005f52603260045260245ffd5b7f4e487b71000000000000000000000000000000000000000000000000000000005f52601160045260245ffd5b5f613cfb82613459565b9150613d0683613459565b9250828201905060ff811115613d1f57613d1e613cc4565b5b92915050565b5f81905092915050565b5f613d39826132ab565b613d438185613d25565b9350613d538185602086016132c5565b80840191505092915050565b5f613d6a8285613d2f565b9150613d768284613d2f565b91508190509392505050565b613d8b81613577565b82525050565b5f602082019050613da45f830184613d82565b92915050565b5f819050815f5260205f209050919050565b5f6020601f8301049050919050565b5f82821b905092915050565b5f60088302613e067fffffffffffffffffffffffffffffffffffffffffffffffffffffffffffffffff82613dcb565b613e108683613dcb565b95508019841693508086168417925050509392505050565b5f819050919050565b5f613e4b613e46613e418461333b565b613e28565b61333b565b9050919050565b5f819050919050565b613e6483613e31565b613e78613e7082613e52565b848454613dd7565b825550505050565b5f5f905090565b613e8f613e80565b613e9a818484613e5b565b505050565b5b81811015613ebd57613eb25f82613e87565b600181019050613ea0565b5050565b601f821115613f0257613ed381613daa565b613edc84613dbc565b81016020851015613eeb578190505b613eff613ef785613dbc565b830182613e9f565b50505b505050565b5f82821c905092915050565b5f613f225f1984600802613f07565b1980831691505092915050565b5f613f3a8383613f13565b9150826002028217905092915050565b613f53826132ab565b67ffffffffffffffff811115613f6c57613f6b6138bb565b5b613f768254613c0b565b613f81828285613ec1565b5f60209050601f831160018114613fb2575f8415613fa0578287015190505b613faa8582613f2f565b865550614011565b601f198416613fc086613daa565b5f5b82811015613fe757848901518255600182019150602085019450602081019050613fc2565b868310156140045784890151614000601f891682613f13565b8355505b6001600288020188555050505b505050505050565b5f6140238261333b565b91507fffffffffffffffffffffffffffffffffffffffffffffffffffffffffffffffff820361405557614054613cc4565b5b600182019050919050565b614069816135a8565b82525050565b5f61407a83856132b5565b9350614087838584613963565b614090836132d3565b840190509392505050565b5f6080820190506140ae5f830188614060565b81810360208301526140c181868861406f565b90506140d06040830185613d82565b6140dd606083018461348d565b9695505050505050565b5f81519050919050565b5f82825260208201905092915050565b5f61410b826140e7565b61411581856140f1565b93506141258185602086016132c5565b61412e816132d3565b840191505092915050565b5f60808201905061414c5f8301876133c9565b61415960208301866133c9565b614166604083018561348d565b81810360608301526141788184614101565b905095945050505050565b5f8151905061419181613223565b92915050565b5f602082840312156141ac576141ab6131f0565b5b5f6141b984828501614183565b91505092915050565b7f4e487b71000000000000000000000000000000000000000000000000000000005f52601260045260245ffd5b5f6141f98261333b565b91506142048361333b565b925082820390508181111561421c5761421b613cc4565b5b92915050565b7f4e487b71000000000000000000000000000000000000000000000000000000005f52603160045260245ffdfea26469706673582212202a6baddab470c107d54fdc9912f4dd1376f6f26f1f575657a5faa16ca8475c2464736f6c634300081c0033",
  "linkReferences": {},
  "deployedLinkReferences": {},
  "immutableReferences": {
    "8096": [
      {
        "length": 32,
        "start": 1746
      },
      {
        "length": 32,
        "start": 2609
      },
      {
        "length": 32,
        "start": 2651
      }
    ],
    "8099": [
      {
        "length": 32,
        "start": 3827
      },
      {
        "length": 32,
        "start": 4153
      }
    ]
  },
  "inputSourceName": "project/contracts/ManuscriptRegistry.sol",
  "buildInfoId": "solc-0_8_28-e562058359c2bbf33d9f364763269489ddd9420b"
}