{
  "_format": "hh3-artifact-1",
  "contractName": "ManuscriptRegistry",
  "sourceName": "contracts/ManuscriptRegistry.sol",
  "abi": [
    {
      "inputs": [
        {
          "internalType": "uint8",
          "name": "max",
          "type": "uint8"
        },
        {
          "internalType": "uint8",
          "name": "maxDepth",
          "type": "uint8"
        }
      ],
      "stateMutability": "nonpayable",
      "type": "constructor"
    },
    {
      "inputs": [],
      "name": "ActiveManuscript",
      "type": "error"
    },
    {
      "inputs": [],
      "name": "ChainTooDeep",
      "type": "error"
    },
    {
      "inputs": [],
      "name": "ERC721EnumerableForbiddenBatchMint",
      "type": "error"
    },
    {
      "inputs": [
        {
          "internalType": "address",
          "name": "sender",
          "type": "address"
        },
        {
          "internalType": "uint256",
          "name": "tokenId",
          "type": "uint256"
        },
        {
          "internalType": "address",
          "name": "owner",
          "type": "address"
        }
      ],
      "name": "ERC721IncorrectOwner",
      "type": "error"
    },
    {
      "inputs": [
        {
          "internalType": "address",
          "name": "operator",
          "type": "address"
        },
        {
          "internalType": "uint256",
          "name": "tokenId",
          "type": "uint256"
        }
      ],
      "name": "ERC721InsufficientApproval",
      "type": "error"
    },
    {
      "inputs": [
        {
          "internalType": "address",
          "name": "approver",
          "type": "address"
        }
      ],
      "name": "ERC721InvalidApprover",
      "type": "error"
    },
    {
      "inputs": [
        {
          "internalType": "address",
          "name": "operator",
          "type": "address"
        }
      ],
      "name": "ERC721InvalidOperator",
      "type": "error"
    },
    {
      "inputs": [
        {
          "internalType": "address",
          "name": "owner",
          "type": "address"
        }
      ],
      "name": "ERC721InvalidOwner",
      "type": "error"
    },
    {
      "inputs": [
        {
          "internalType": "address",
          "name": "receiver",
          "type": "address"
        }
      ],
      "name": "ERC721InvalidReceiver",
      "type": "error"
    },
    {
      "inputs": [
        {
          "internalType": "address",
          "name": "sender",
          "type": "address"
        }
      ],
      "name": "ERC721InvalidSender",
      "type": "error"
    },
    {
      "inputs": [
        {
          "internalType": "uint256",
          "name": "tokenId",
          "type": "uint256"
        }
      ],
      "name": "ERC721NonexistentToken",
      "type": "error"
    },
    {
      "inputs": [
        {
          "internalType": "address",
          "name": "owner",
          "type": "address"
        },
        {
          "internalType": "uint256",
          "name": "index",
          "type": "uint256"
        }
      ],
      "name": "ERC721OutOfBoundsIndex",
      "type": "error"
    },
    {
      "inputs": [],
      "name": "EnforcedPause",
      "type": "error"
    },
    {
      "inputs": [],
      "name": "ExpectedPause",
      "type": "error"
    },
    {
      "inputs": [],
      "name": "ManuscriptAlreadyArchived",
      "type": "error"
    },
    {
      "inputs": [],
      "name": "ManuscriptAlreadyExists",
      "type": "error"
    },
    {
      "inputs": [],
      "name": "ManuscriptNotFound",
      "type": "error"
    },
    {
      "inputs": [],
      "name": "OriginManuscriptAlreadyArchived",
      "type": "error"
    },
    {
      "inputs": [],
      "name": "OriginManuscriptNotFound",
      "type": "error"
    },
    {
      "inputs": [
        {
          "internalType": "address",
          "name": "owner",
          "type": "address"
        }
      ],
      "name": "OwnableInvalidOwner",
      "type": "error"
    },
    {
      "inputs": [
        {
          "internalType": "address",
          "name": "account",
          "type": "address"
        }
      ],
      "name": "OwnableUnauthorizedAccount",
      "type": "error"
    },
    {
      "inputs": [],
      "name": "TitleEmpty",
      "type": "error"
    },
    {
      "inputs": [],
      "name": "TitleTooLong",
      "type": "error"
    },
    {
      "inputs": [],
      "name": "TransferNotAllowed",
      "type": "error"
    },
    {
      "inputs": [],
      "name": "Unauthorized",
      "type": "error"
    },
    {
      "anonymous": false,
      "inputs": [
        {
          "indexed": true,
          "internalType": "address",
          "name": "owner",
          "type": "address"
        },
        {
          "indexed": true,
          "internalType": "address",
          "name": "approved",
          "type": "address"
        },
        {
          "indexed": true,
          "internalType": "uint256",
          "name": "tokenId",
          "type": "uint256"
        }
      ],
      "name": "Approval",
      "type": "event"
    },
    {
      "anonymous": false,
      "inputs": [
        {
          "indexed": true,
          "internalType": "address",
          "name": "owner",
          "type": "address"
        },
        {
          "indexed": true,
          "internalType": "address",
          "name": "operator",
          "type": "address"
        },
        {
          "indexed": false,
          "internalType": "bool",
          "name": "approved",
          "type": "bool"
        }
      ],
      "name": "ApprovalForAll",
      "type": "event"
    },
    {
      "anonymous": false,
      "inputs": [
        {
          "indexed": true,
          "internalType": "uint256",
          "name": "tokenId",
          "type": "uint256"
        },
        {
          "indexed": true,
          "internalType": "address",
          "name": "author",
          "type": "address"
        },
        {
          "indexed": false,
          "internalType": "uint64",
          "name": "timestamp",
          "type": "uint64"
        }
      ],
      "name": "ManuscriptArchived",
      "type": "event"
    },
    {
      "anonymous": false,
      "inputs": [
        {
          "indexed": true,
          "internalType": "uint256",
          "name": "tokenId",
          "type": "uint256"
        },
        {
          "indexed": true,
          "internalType": "address",
          "name": "author",
          "type": "address"
        },
        {
          "indexed": false,
          "internalType": "bytes32",
          "name": "hash",
          "type": "bytes32"
        },
        {
          "indexed": false,
          "internalType": "string",
          "name": "title",
          "type": "string"
        },
        {
          "indexed": false,
          "internalType": "uint64",
          "name": "timestamp",
          "type": "uint64"
        },
        {
          "indexed": false,
          "internalType": "uint256",
          "name": "previousTokenId",
          "type": "uint256"
        },
        {
          "indexed": false,
          "internalType": "bool",
          "name": "hasParent",
          "type": "bool"
        }
      ],
      "name": "ManuscriptRegistered",
      "type": "event"
    },
    {
      "anonymous": false,
      "inputs": [
        {
          "indexed": true,
          "internalType": "uint256",
          "name": "tokenId",
          "type": "uint256"
        },
        {
          "indexed": true,
          "internalType": "address",
          "name": "author",
          "type": "address"
        },
        {
          "indexed": false,
          "internalType": "uint64",
          "name": "timestamp",
          "type": "uint64"
        }
      ],
      "name": "ManuscriptUnarchived",
      "type": "event"
    },
    {
      "anonymous": false,
      "inputs": [
        {
          "indexed": true,
          "internalType": "address",
          "name": "previousOwner",
          "type": "address"
        },
        {
          "indexed": true,
          "internalType": "address",
          "name": "newOwner",
          "type": "address"
        }
      ],
      "name": "OwnershipTransferred",
      "type": "event"
    },
    {
      "anonymous": false,
      "inputs": [
        {
          "indexed": false,
          "internalType": "address",
          "name": "account",
          "type": "address"
        }
      ],
      "name": "Paused",
      "type": "event"
    },
    {
      "anonymous": false,
      "inputs": [
        {
          "indexed": true,
          "internalType": "address",
          "name": "from",
          "type": "address"
        },
        {
          "indexed": true,
          "internalType": "address",
          "name": "to",
          "type": "address"
        },
        {
          "indexed": true,
          "internalType": "uint256",
          "name": "tokenId",
          "type": "uint256"
        }
      ],
      "name": "Transfer",
      "type": "event"
    },
    {
      "anonymous": false,
      "inputs": [
        {
          "indexed": false,
          "internalType": "address",
          "name": "account",
          "type": "address"
        }
      ],
      "name": "Unpaused",
      "type": "event"
    },
    {
      "inputs": [],
      "name": "MAX_CHAIN_DEPTH",
      "outputs": [
        {
          "internalType": "uint8",
          "name": "",
          "type": "uint8"
        }
      ],
      "stateMutability": "view",
      "type": "function"
    },
    {
      "inputs": [],
      "name": "MAX_MANUSCRIPTS_PER_QUERY",
      "outputs": [
        {
          "internalType": "uint8",
          "name": "",
          "type": "uint8"
        }
      ],
      "stateMutability": "view",
      "type": "function"
    },
    {
      "inputs": [
        {
          "internalType": "address",
          "name": "to",
          "type": "address"
        },
        {
          "internalType": "uint256",
          "name": "tokenId",
          "type": "uint256"
        }
      ],
      "name": "approve",
      "outputs": [],
      "stateMutability": "nonpayable",
      "type": "function"
    },
    {
      "inputs": [
        {
          "internalType": "uint256",
          "name": "tokenId",
          "type": "uint256"
        }
      ],
      "name": "archiveManuscript",
      "outputs": [],
      "stateMutability": "nonpayable",
      "type": "function"
    },
    {
      "inputs": [
        {
          "internalType": "address",
          "name": "owner",
          "type": "address"
        }
      ],
      "name": "balanceOf",
      "outputs": [
        {
          "internalType": "uint256",
          "name": "",
          "type": "uint256"
        }
      ],
      "stateMutability": "view",
      "type": "function"
    },
    {
      "inputs": [
        {
          "internalType": "uint256",
          "name": "tokenId",
          "type": "uint256"
        }
      ],
      "name": "getApproved",
      "outputs": [
        {
          "internalType": "address",
          "name": "",
          "type": "address"
        }
      ],
      "stateMutability": "view",
      "type": "function"
    },
    {
      "inputs": [
        {
          "internalType": "bytes32",
          "name": "hash",
          "type": "bytes32"
        }
      ],
      "name": "getManuscriptByHash",
      "outputs": [
        {
          "components": [
            {
              "internalType": "address",
              "name": "author",
              "type": "address"
            },
            {
              "internalType": "bool",
              "name": "archived",
              "type": "bool"
            },
            {
              "internalType": "bool",
              "name": "hasParent",
              "type": "bool"
            },
            {
              "internalType": "uint64",
              "name": "timestamp",
              "type": "uint64"
            },
            {
              "internalType": "uint256",
              "name": "tokenId",
              "type": "uint256"
            },
            {
              "internalType": "bytes32",
              "name": "hash",
              "type": "bytes32"
            },
            {
              "internalType": "uint256",
              "name": "previousTokenId",
              "type": "uint256"
            },
            {
              "internalType": "string",
              "name": "title",
              "type": "string"
            }
          ],
          "internalType": "struct ManuscriptRegistry.Manuscript",
          "name": "",
          "type": "tuple"
        }
      ],
      "stateMutability": "view",
      "type": "function"
    },
    {
      "inputs": [
        {
          "internalType": "uint256",
          "name": "tokenId",
          "type": "uint256"
        }
      ],
      "name": "getManuscriptByTokenId",
      "outputs": [
        {
          "components": [
            {
              "internalType": "address",
              "name": "author",
              "type": "address"
            },
            {
              "internalType": "bool",
              "name": "archived",
              "type": "bool"
            },
            {
              "internalType": "bool",
              "name": "hasParent",
              "type": "bool"
            },
            {
              "internalType": "uint64",
              "name": "timestamp",
              "type": "uint64"
            },
            {
              "internalType": "uint256",
              "name": "tokenId",
              "type": "uint256"
            },
            {
              "internalType": "bytes32",
              "name": "hash",
              "type": "bytes32"
            },
            {
              "internalType": "uint256",
              "name": "previousTokenId",
              "type": "uint256"
            },
            {
              "internalType": "string",
              "name": "title",
              "type": "string"
            }
          ],
          "internalType": "struct ManuscriptRegistry.Manuscript",
          "name": "",
          "type": "tuple"
        }
      ],
      "stateMutability": "view",
      "type": "function"
    },
    {
      "inputs": [
        {
          "internalType": "address",
          "name": "author",
          "type": "address"
        },
        {
          "internalType": "uint256",
          "name": "offset",
          "type": "uint256"
        }
      ],
      "name": "getManuscriptsByAuthor",
      "outputs": [
        {
          "components": [
            {
              "internalType": "address",
              "name": "author",
              "type": "address"
            },
            {
              "internalType": "bool",
              "name": "archived",
              "type": "bool"
            },
            {
              "internalType": "bool",
              "name": "hasParent",
              "type": "bool"
            },
            {
              "internalType": "uint64",
              "name": "timestamp",
              "type": "uint64"
            },
            {
              "internalType": "uint256",
              "name": "tokenId",
              "type": "uint256"
            },
            {
              "internalType": "bytes32",
              "name": "hash",
              "type": "bytes32"
            },
            {
              "internalType": "uint256",
              "name": "previousTokenId",
              "type": "uint256"
            },
            {
              "internalType": "string",
              "name": "title",
              "type": "string"
            }
          ],
          "internalType": "struct ManuscriptRegistry.Manuscript[]",
          "name": "",
          "type": "tuple[]"
        }
      ],
      "stateMutability": "view",
      "type": "function"
    },
    {
      "inputs": [
        {
          "internalType": "address",
          "name": "owner",
          "type": "address"
        },
        {
          "internalType": "address",
          "name": "operator",
          "type": "address"
        }
      ],
      "name": "isApprovedForAll",
      "outputs": [
        {
          "internalType": "bool",
          "name": "",
          "type": "bool"
        }
      ],
      "stateMutability": "view",
      "type": "function"
    },
    {
      "inputs": [],
      "name": "name",
      "outputs": [
        {
          "internalType": "string",
          "name": "",
          "type": "string"
        }
      ],
      "stateMutability": "view",
      "type": "function"
    },
    {
      "inputs": [],
      "name": "owner",
      "outputs": [
        {
          "internalType": "address",
          "name": "",
          "type": "address"
        }
      ],
      "stateMutability": "view",
      "type": "function"
    },
    {
      "inputs": [
        {
          "internalType": "uint256",
          "name": "tokenId",
          "type": "uint256"
        }
      ],
      "name": "ownerOf",
      "outputs": [
        {
          "internalType": "address",
          "name": "",
          "type": "address"
        }
      ],
      "stateMutability": "view",
      "type": "function"
    },
    {
      "inputs": [],
      "name": "pause",
      "outputs": [],
      "stateMutability": "nonpayable",
      "type": "function"
    },
    {
      "inputs": [],
      "name": "paused",
      "outputs": [
        {
          "internalType": "bool",
          "name": "",
          "type": "bool"
        }
      ],
      "stateMutability": "view",
      "type": "function"
    },
    {
      "inputs": [
        {
          "internalType": "bytes32",
          "name": "hash",
          "type": "bytes32"
        },
        {
          "internalType": "string",
          "name": "title",
          "type": "string"
        }
      ],
      "name": "registerManuscript",
      "outputs": [],
      "stateMutability": "nonpayable",
      "type": "function"
    },
    {
      "inputs": [
        {
          "internalType": "bytes32",
          "name": "hash",
          "type": "bytes32"
        },
        {
          "internalType": "string",
          "name": "title",
          "type": "string"
        },
        {
          "internalType": "uint256",
          "name": "previousTokenId",
          "type": "uint256"
        }
      ],
      "name": "registerNewVersion",
      "outputs": [],
      "stateMutability": "nonpayable",
      "type": "function"
    },
    {
      "inputs": [],
      "name": "renounceOwnership",
      "outputs": [],
      "stateMutability": "nonpayable",
      "type": "function"
    },
    {
      "inputs": [
        {
          "internalType": "address",
          "name": "from",
          "type": "address"
        },
        {
          "internalType": "address",
          "name": "to",
          "type": "address"
        },
        {
          "internalType": "uint256",
          "name": "tokenId",
          "type": "uint256"
        }
      ],
      "name": "safeTransferFrom",
      "outputs": [],
      "stateMutability": "nonpayable",
      "type": "function"
    },
    {
      "inputs": [
        {
          "internalType": "address",
          "name": "from",
          "type": "address"
        },
        {
          "internalType": "address",
          "name": "to",
          "type": "address"
        },
        {
          "internalType": "uint256",
          "name": "tokenId",
          "type": "uint256"
        },
        {
          "internalType": "bytes",
          "name": "data",
          "type": "bytes"
        }
      ],
      "name": "safeTransferFrom",
      "outputs": [],
      "stateMutability": "nonpayable",
      "type": "function"
    },
    {
      "inputs": [
        {
          "internalType": "address",
          "name": "operator",
          "type": "address"
        },
        {
          "internalType": "bool",
          "name": "approved",
          "type": "bool"
        }
      ],
      "name": "setApprovalForAll",
      "outputs": [],
      "stateMutability": "nonpayable",
      "type": "function"
    },
    {
      "inputs": [
        {
          "internalType": "bytes4",
          "name": "interfaceId",
          "type": "bytes4"
        }
      ],
      "name": "supportsInterface",
      "outputs": [
        {
          "internalType": "bool",
          "name": "",
          "type": "bool"
        }
      ],
      "stateMutability": "view",
      "type": "function"
    },
    {
      "inputs": [],
      "name": "symbol",
      "outputs": [
        {
          "internalType": "string",
          "name": "",
          "type": "string"
        }
      ],
      "stateMutability": "view",
      "type": "function"
    },
    {
      "inputs": [
        {
          "internalType": "uint256",
          "name": "index",
          "type": "uint256"
        }
      ],
      "name": "tokenByIndex",
      "outputs": [
        {
          "internalType": "uint256",
          "name": "",
          "type": "uint256"
        }
      ],
      "stateMutability": "view",
      "type": "function"
    },
    {
      "inputs": [
        {
          "internalType": "address",
          "name": "owner",
          "type": "address"
        },
        {
          "internalType": "uint256",
          "name": "index",
          "type": "uint256"
        }
      ],
      "name": "tokenOfOwnerByIndex",
      "outputs": [
        {
          "internalType": "uint256",
          "name": "",
          "type": "uint256"
        }
      ],
      "stateMutability": "view",
      "type": "function"
    },
    {
      "inputs": [
        {
          "internalType": "uint256",
          "name": "tokenId",
          "type": "uint256"
        }
      ],
      "name": "tokenURI",
      "outputs": [
        {
          "internalType": "string",
          "name": "",
          "type": "string"
        }
      ],
      "stateMutability": "view",
      "type": "function"
    },
    {
      "inputs": [],
      "name": "totalSupply",
      "outputs": [
        {
          "internalType": "uint256",
          "name": "",
          "type": "uint256"
        }
      ],
      "stateMutability": "view",
      "type": "function"
    },
    {
      "inputs": [
        {
          "internalType": "address",
          "name": "from",
          "type": "address"
        },
        {
          "internalType": "address",
          "name": "to",
          "type": "address"
        },
        {
          "internalType": "uint256",
          "name": "tokenId",
          "type": "uint256"
        }
      ],
      "name": "transferFrom",
      "outputs": [],
      "stateMutability": "nonpayable",
      "type": "function"
    },
    {
      "inputs": [
        {
          "internalType": "address",
          "name": "newOwner",
          "type": "address"
        }
      ],
      "name": "transferOwnership",
      "outputs": [],
      "stateMutability": "nonpayable",
      "type": "function"
    },
    {
      "inputs": [
        {
          "internalType": "uint256",
          "name": "tokenId",
          "type": "uint256"
        }
      ],
      "name": "unarchiveManuscript",
      "outputs": [],
      "stateMutability": "nonpayable",
      "type": "function"
    },
    {
      "inputs": [],
      "name": "unpause",
      "outputs": [],
      "stateMutability": "nonpayable",
      "type": "function"
    }
  ],
  "bytecode": "0x60c06040526001600b55348015610014575f5ffd5b5060405161293238038061293283398101604081905261003391610149565b336040518060400160405280600b81526020016a2a3437ba3427b934b3b4b760a91b81525060405180604001604052806004815260200163151213d560e21b815250815f90816100839190610212565b5060016100908282610212565b5050506001600160a01b0381166100c057604051631e4fbdf760e01b81525f600482015260240160405180910390fd5b6100c9816100db565b5060ff9182166080521660a0526102cc565b600a80546001600160a01b03838116610100818102610100600160a81b031985161790945560405193909204169182907f8be0079c531659141344cd1fd0a4f28419497f9722a3daafe3b4186f6b6457e0905f90a35050565b805160ff81168114610144575f5ffd5b919050565b5f5f6040838503121561015a575f5ffd5b61016383610134565b915061017160208401610134565b90509250929050565b634e487b7160e01b5f52604160045260245ffd5b600181811c908216806101a257607f821691505b6020821081036101c057634e487b7160e01b5f52602260045260245ffd5b50919050565b601f82111561020d57805f5260205f20601f840160051c810160208510156101eb5750805b601f840160051c820191505b8181101561020a575f81556001016101f7565b50505b505050565b81516001600160401b0381111561022b5761022b61017a565b61023f81610239845461018e565b846101c6565b6020601f821160018114610271575f831561025a5750848201515b5f19600385901b1c1916600184901b17845561020a565b5f84815260208120601f198516915b828110156102a05787850151825560209485019460019092019101610280565b50848210156102bd57868401515f19600387901b60f8161c191681555b50505050600190811b01905550565b60805160a0516126306103025f395f818161037301526108b701525f818161026201528181610c2c0152610c5601526126305ff3fe608060405234801561000f575f5ffd5b50600436106101dc575f3560e01c8063715018a611610109578063c1e2aa371161009e578063df7cf9cb1161006e578063df7cf9cb14610427578063e985e9c514610447578063f2fde38b1461045a578063fcbb8c571461046d575f5ffd5b8063c1e2aa37146103ce578063c87b56dd146103e1578063d14d8bc8146103f4578063d67a182314610407575f5ffd5b80639641df3d116100d95780639641df3d1461036e578063a22cb46514610395578063a2e0a33e146103a8578063b88d4fde146103bb575f5ffd5b8063715018a6146103405780638456cb59146103485780638da5cb5b1461035057806395d89b4114610366575f5ffd5b8063280072cc1161017f5780634f6ccce71161014f5780634f6ccce7146102fc5780635c975abb1461030f5780636352211e1461031a57806370a082311461032d575f5ffd5b8063280072cc146102bb5780632f745c59146102ce5780633f4ba83a146102e157806342842e0e146102e9575f5ffd5b8063095ea7b3116101ba578063095ea7b314610248578063157fb5a61461025d57806318160ddd1461029657806323b872dd146102a8575f5ffd5b806301ffc9a7146101e057806306fdde0314610208578063081812fc1461021d575b5f5ffd5b6101f36101ee366004611f27565b610480565b60405190151581526020015b60405180910390f35b610210610490565b6040516101ff9190611f70565b61023061022b366004611f82565b61051f565b6040516001600160a01b0390911681526020016101ff565b61025b610256366004611fb4565b610546565b005b6102847f000000000000000000000000000000000000000000000000000000000000000081565b60405160ff90911681526020016101ff565b6008545b6040519081526020016101ff565b61025b6102b6366004611fdc565b610555565b61025b6102c9366004611f82565b6105e3565b61029a6102dc366004611fb4565b610690565b61025b6106f3565b61025b6102f7366004611fdc565b610705565b61029a61030a366004611f82565b610724565b600a5460ff166101f3565b610230610328366004611f82565b610779565b61029a61033b366004612016565b610783565b61025b6107c8565b61025b6107d9565b600a5461010090046001600160a01b0316610230565b6102106107e9565b6102847f000000000000000000000000000000000000000000000000000000000000000081565b61025b6103a336600461202f565b6107f8565b61025b6103b63660046120ac565b610803565b61025b6103c936600461210e565b610927565b61025b6103dc366004611f82565b61093f565b6102106103ef366004611f82565b6109eb565b61025b6104023660046121e8565b610a5c565b61041a610415366004611f82565b610a72565b6040516101ff91906122b2565b61043a610435366004611fb4565b610bce565b6040516101ff91906122c4565b6101f3610455366004612327565b610e3e565b61025b610468366004612016565b610e6b565b61041a61047b366004611f82565b610ea8565b5f61048a82610ef2565b92915050565b60605f805461049e90612358565b80601f01602080910402602001604051908101604052809291908181526020018280546104ca90612358565b80156105155780601f106104ec57610100808354040283529160200191610515565b820191905f5260205f20905b8154815290600101906020018083116104f857829003601f168201915b5050505050905090565b5f61052982610f16565b505f828152600460205260409020546001600160a01b031661048a565b610551828233610f4e565b5050565b6001600160a01b03821661058357604051633250574960e11b81525f60048201526024015b60405180910390fd5b5f61058f838333610f5b565b9050836001600160a01b0316816001600160a01b0316146105dd576040516364283d7b60e01b81526001600160a01b038086166004830152602482018490528216604482015260640161057a565b50505050565b5f8181526002602052604090205481906001600160a01b0316610619576040516314bd59cd60e21b815260040160405180910390fd5b3361062382610779565b6001600160a01b031614610649576040516282b42960e81b815260040160405180910390fd5b610651610fbb565b5f828152600c6020526040902054600160a01b900460ff16156106875760405163f127640760e01b815260040160405180910390fd5b61055182610fdf565b5f61069a83610783565b82106106cb5760405163295f44f760e21b81526001600160a01b03841660048201526024810183905260440161057a565b506001600160a01b03919091165f908152600660209081526040808320938352929052205490565b6106fb6110f9565b61070361112c565b565b61071f83838360405180602001604052805f815250610927565b505050565b5f61072e60085490565b82106107565760405163295f44f760e21b81525f60048201526024810183905260440161057a565b6008828154811061076957610769612390565b905f5260205f2001549050919050565b5f61048a82610f16565b5f6001600160a01b0382166107ad576040516322718ad960e21b81525f600482015260240161057a565b506001600160a01b03165f9081526003602052604090205490565b6107d06110f9565b6107035f61117e565b6107e16110f9565b6107036111d7565b60606001805461049e90612358565b610551338383611214565b61080b610fbb565b5f818152600260205260409020546001600160a01b031661083f57604051635ddfbc8760e11b815260040160405180910390fd5b3361084982610779565b6001600160a01b03161461086f576040516282b42960e81b815260040160405180910390fd5b5f818152600c6020526040902054600160a01b900460ff16156108a557604051638c7828fb60e01b815260040160405180910390fd5b5f818152600f602052604090205460ff7f000000000000000000000000000000000000000000000000000000000000000081169116106108f85760405163d93ed10160e01b815260040160405180910390fd5b5f818152600f60205260409020546105dd9085908590859085906001906109229060ff16826123b8565b6112db565b610932848484610555565b6105dd3385858585611558565b5f8181526002602052604090205481906001600160a01b0316610975576040516314bd59cd60e21b815260040160405180910390fd5b3361097f82610779565b6001600160a01b0316146109a5576040516282b42960e81b815260040160405180910390fd5b6109ad610fbb565b5f828152600c6020526040902054600160a01b900460ff166109e2576040516350509b4760e01b815260040160405180910390fd5b61055182611680565b60606109f682610f16565b505f610a0c60408051602081019091525f815290565b90505f815111610a2a5760405180602001604052805f815250610a55565b80610a3484611717565b604051602001610a459291906123e8565b6040516020818303038152906040525b9392505050565b610a64610fbb565b61071f8383835f5f5f6112db565b610a7a611ebe565b5f828152600260205260409020546001600160a01b0316610aae576040516314bd59cd60e21b815260040160405180910390fd5b5f828152600c602090815260409182902082516101008101845281546001600160a01b0381168252600160a01b810460ff908116151594830194909452600160a81b8104909316151593810193909352600160b01b9091046001600160401b0316606083015260018101546080830152600281015460a0830152600381015460c083015260048101805460e084019190610b4790612358565b80601f0160208091040260200160405190810160405280929190818152602001828054610b7390612358565b8015610bbe5780601f10610b9557610100808354040283529160200191610bbe565b820191905f5260205f20905b815481529060010190602001808311610ba157829003601f168201915b5050505050815250509050919050565b60605f610bda84610783565b9050808310610c1c57604080515f8082526020820190925290610c13565b610c00611ebe565b815260200190600190039081610bf85790505b5091505061048a565b5f610c2784836123fc565b90505f7f000000000000000000000000000000000000000000000000000000000000000060ff168210610c7d577f000000000000000000000000000000000000000000000000000000000000000060ff16610c7f565b815b90505f816001600160401b03811115610c9a57610c9a6120fa565b604051908082528060200260200182016040528015610cd357816020015b610cc0611ebe565b815260200190600190039081610cb85790505b5090505f5b82811015610e3357600c5f610cf18a6102dc858c61240f565b815260208082019290925260409081015f2081516101008101835281546001600160a01b0381168252600160a01b810460ff908116151595830195909552600160a81b8104909416151592810192909252600160b01b9092046001600160401b0316606082015260018201546080820152600282015460a0820152600382015460c082015260048201805491929160e084019190610d8e90612358565b80601f0160208091040260200160405190810160405280929190818152602001828054610dba90612358565b8015610e055780601f10610ddc57610100808354040283529160200191610e05565b820191905f5260205f20905b815481529060010190602001808311610de857829003601f168201915b505050505081525050828281518110610e2057610e20612390565b6020908102919091010152600101610cd8565b509695505050505050565b6001600160a01b039182165f90815260056020908152604080832093909416825291909152205460ff1690565b610e736110f9565b6001600160a01b038116610e9c57604051631e4fbdf760e01b81525f600482015260240161057a565b610ea58161117e565b50565b610eb0611ebe565b5f828152600d6020526040902054610edb576040516314bd59cd60e21b815260040160405180910390fd5b5f828152600d602052604090205461048a90610a72565b5f6001600160e01b0319821663780e9d6360e01b148061048a575061048a826117a6565b5f818152600260205260408120546001600160a01b03168061048a57604051637e27328960e01b81526004810184905260240161057a565b61071f83838360016117f5565b5f828152600260205260408120546001600160a01b03168015801590610f8957506001600160a01b03851615155b15610fa757604051638cd22d1960e01b815260040160405180910390fd5b610fb28585856118f9565b95945050505050565b600a5460ff16156107035760405163d93c066560e01b815260040160405180910390fd5b610fea816001611915565b6040516001600160401b0342168152339082907f0bb9a77ccb7c4cd7e6321b4a4f45ddda12dc42db8ef537676bf742f9d2e61f259060200160405180910390a35f818152600e602090815260408083208054825181850281018501909352808352919290919083018282801561107d57602002820191905f5260205f20905b815481526020019060010190808311611069575b509394505f93505050505b815181101561071f57600c5f8383815181106110a6576110a6612390565b602002602001015181526020019081526020015f205f0160149054906101000a900460ff166110f1576110f18282815181106110e4576110e4612390565b6020026020010151610fdf565b600101611088565b600a546001600160a01b036101009091041633146107035760405163118cdaa760e01b815233600482015260240161057a565b61113461193f565b600a805460ff191690557f5db9ee0a495bf2e6ff9c91a7834c1ba4fdd244a5e8aa4e537bd38aeae4b073aa335b6040516001600160a01b03909116815260200160405180910390a1565b600a80546001600160a01b03838116610100818102610100600160a81b031985161790945560405193909204169182907f8be0079c531659141344cd1fd0a4f28419497f9722a3daafe3b4186f6b6457e0905f90a35050565b6111df610fbb565b600a805460ff191660011790557f62e78cea01bee320cd4e420270b5ea74000d11b0c9f74754ebdbfc544b05a2586111613390565b6001600160a01b03831661123d5760405163a9fbf51f60e01b81525f600482015260240161057a565b6001600160a01b03821661126f57604051630b61174360e31b81526001600160a01b038316600482015260240161057a565b6001600160a01b038381165f81815260056020908152604080832094871680845294825291829020805460ff191686151590811790915591519182527f17307eab39ab6107e8899845ad3d59bd9653f200f220920489ca2b5937696c31910160405180910390a3505050565b83806112fa57604051635d0ff12d60e01b815260040160405180910390fd5b606481111561131c576040516324a25c5760e01b815260040160405180910390fd5b5f878152600d6020526040902054156113485760405163334129ed60e01b815260040160405180910390fd5b600b545f818152600f60205260409020805460ff191660ff85161790554290841561138e575f868152600e60209081526040822080546001810182559083529120018190555b604051806101000160405280336001600160a01b031681526020015f151581526020018615158152602001836001600160401b031681526020018281526020018a815260200187815260200189898080601f0160208091040260200160405190810160405280939291908181526020018383808284375f920182905250939094525050838152600c602090815260409182902084518154928601519386015160608701516001600160401b0316600160b01b0267ffffffffffffffff60b01b19911515600160a81b029190911668ffffffffffffffffff60a81b19951515600160a01b026001600160a81b03199095166001600160a01b03909316929092179390931793909316929092171781556080830151600182015560a0830151600282015560c0830151600382015560e083015190915060048201906114d19082612466565b5050505f898152600d60205260408120829055600b8054916114f283612520565b91905055506115013382611962565b336001600160a01b0316817f78d2183b21e05f7a2f19af32e667731390e06ac07000c78cfc5b879407b962aa8b8b8b878c8c60405161154596959493929190612538565b60405180910390a3505050505050505050565b6001600160a01b0383163b1561167957604051630a85bd0160e11b81526001600160a01b0384169063150b7a029061159a90889088908790879060040161258f565b6020604051808303815f875af19250505080156115d4575060408051601f3d908101601f191682019092526115d1918101906125cb565b60015b61163b573d808015611601576040519150601f19603f3d011682016040523d82523d5f602084013e611606565b606091505b5080515f0361163357604051633250574960e11b81526001600160a01b038516600482015260240161057a565b805160208201fd5b6001600160e01b03198116630a85bd0160e11b1461167757604051633250574960e11b81526001600160a01b038516600482015260240161057a565b505b5050505050565b61168a815f611915565b6040516001600160401b0342168152339082907f380f53c215c06a3052cbd6232d4a640236daa1311c4fc7a9e95c7914efdf62dc9060200160405180910390a35f818152600c6020526040902054600160a81b900460ff1615610ea5575f818152600c602052604080822060030154808352912054600160a01b900460ff16156105515761055181611680565b60605f6117238361197b565b60010190505f816001600160401b03811115611741576117416120fa565b6040519080825280601f01601f19166020018201604052801561176b576020820181803683370190505b5090508181016020015b5f19016f181899199a1a9b1b9c1cb0b131b232b360811b600a86061a8153600a850494508461177557509392505050565b5f6001600160e01b031982166380ac58cd60e01b14806117d657506001600160e01b03198216635b5e139f60e01b145b8061048a57506301ffc9a760e01b6001600160e01b031983161461048a565b808061180957506001600160a01b03821615155b156118ca575f61181884610f16565b90506001600160a01b038316158015906118445750826001600160a01b0316816001600160a01b031614155b801561185757506118558184610e3e565b155b156118805760405163a9fbf51f60e01b81526001600160a01b038416600482015260240161057a565b81156118c85783856001600160a01b0316826001600160a01b03167f8c5be1e5ebec7d5bd14f71427d1e84f3dd0314c0f7b2291e5b200ac8c7c3b92560405160405180910390a45b505b50505f90815260046020526040902080546001600160a01b0319166001600160a01b0392909216919091179055565b5f611902610fbb565b61190d848484611a52565b949350505050565b5f918252600c60205260409091208054911515600160a01b0260ff60a01b19909216919091179055565b600a5460ff1661070357604051638dfc202b60e01b815260040160405180910390fd5b610551828260405180602001604052805f815250611b1d565b5f8072184f03e93ff9f4daa797ed6e38ed64bf6a1f0160401b83106119b95772184f03e93ff9f4daa797ed6e38ed64bf6a1f0160401b830492506040015b6d04ee2d6d415b85acef810000000083106119e5576d04ee2d6d415b85acef8100000000830492506020015b662386f26fc100008310611a0357662386f26fc10000830492506010015b6305f5e1008310611a1b576305f5e100830492506008015b6127108310611a2f57612710830492506004015b60648310611a41576064830492506002015b600a831061048a5760010192915050565b5f5f611a5f858585611b34565b90506001600160a01b038116611abb57611ab684600880545f838152600960205260408120829055600182018355919091527ff3f7a9fe364faab93b216da50a3214154f22a0a2b415b23a84c8169e8b636ee30155565b611ade565b846001600160a01b0316816001600160a01b031614611ade57611ade8185611c26565b6001600160a01b038516611afa57611af584611ca3565b61190d565b846001600160a01b0316816001600160a01b03161461190d5761190d8585611d4a565b611b278383611d98565b61071f335f858585611558565b5f828152600260205260408120546001600160a01b0390811690831615611b6057611b60818486611df9565b6001600160a01b03811615611b9a57611b7b5f855f5f6117f5565b6001600160a01b0381165f90815260036020526040902080545f190190555b6001600160a01b03851615611bc8576001600160a01b0385165f908152600360205260409020805460010190555b5f8481526002602052604080822080546001600160a01b0319166001600160a01b0389811691821790925591518793918516917fddf252ad1be2c89b69c2b068fc378daa952ba7f163c4a11628f55a4df523b3ef91a4949350505050565b5f611c3083610783565b5f838152600760209081526040808320546001600160a01b0388168452600690925290912091925090818314611c85575f83815260208281526040808320548584528184208190558352600790915290208290555b5f938452600760209081526040808620869055938552525081205550565b6008545f90611cb4906001906123fc565b5f8381526009602052604081205460088054939450909284908110611cdb57611cdb612390565b905f5260205f20015490508060088381548110611cfa57611cfa612390565b5f918252602080832090910192909255828152600990915260408082208490558582528120556008805480611d3157611d316125e6565b600190038181905f5260205f20015f9055905550505050565b5f6001611d5684610783565b611d6091906123fc565b6001600160a01b039093165f908152600660209081526040808320868452825280832085905593825260079052919091209190915550565b6001600160a01b038216611dc157604051633250574960e11b81525f600482015260240161057a565b5f611dcd83835f610f5b565b90506001600160a01b0381161561071f576040516339e3563760e11b81525f600482015260240161057a565b611e04838383611e5d565b61071f576001600160a01b038316611e3257604051637e27328960e01b81526004810182905260240161057a565b60405163177e802f60e01b81526001600160a01b03831660048201526024810182905260440161057a565b5f6001600160a01b0383161580159061190d5750826001600160a01b0316846001600160a01b03161480611e965750611e968484610e3e565b8061190d5750505f908152600460205260409020546001600160a01b03908116911614919050565b6040518061010001604052805f6001600160a01b031681526020015f151581526020015f151581526020015f6001600160401b031681526020015f81526020015f81526020015f8152602001606081525090565b6001600160e01b031981168114610ea5575f5ffd5b5f60208284031215611f37575f5ffd5b8135610a5581611f12565b5f81518084528060208401602086015e5f602082860101526020601f19601f83011685010191505092915050565b602081525f610a556020830184611f42565b5f60208284031215611f92575f5ffd5b5035919050565b80356001600160a01b0381168114611faf575f5ffd5b919050565b5f5f60408385031215611fc5575f5ffd5b611fce83611f99565b946020939093013593505050565b5f5f5f60608486031215611fee575f5ffd5b611ff784611f99565b925061200560208501611f99565b929592945050506040919091013590565b5f60208284031215612026575f5ffd5b610a5582611f99565b5f5f60408385031215612040575f5ffd5b61204983611f99565b91506020830135801515811461205d575f5ffd5b809150509250929050565b5f5f83601f840112612078575f5ffd5b5081356001600160401b0381111561208e575f5ffd5b6020830191508360208285010111156120a5575f5ffd5b9250929050565b5f5f5f5f606085870312156120bf575f5ffd5b8435935060208501356001600160401b038111156120db575f5ffd5b6120e787828801612068565b9598909750949560400135949350505050565b634e487b7160e01b5f52604160045260245ffd5b5f5f5f5f60808587031215612121575f5ffd5b61212a85611f99565b935061213860208601611f99565b92506040850135915060608501356001600160401b03811115612159575f5ffd5b8501601f81018713612169575f5ffd5b80356001600160401b03811115612182576121826120fa565b604051601f8201601f19908116603f011681016001600160401b03811182821017156121b0576121b06120fa565b6040528181528282016020018910156121c7575f5ffd5b816020840160208301375f6020838301015280935050505092959194509250565b5f5f5f604084860312156121fa575f5ffd5b8335925060208401356001600160401b03811115612216575f5ffd5b61222286828701612068565b9497909650939450505050565b80516001600160a01b031682526020808201511515908301526040808201515f9161225d9085018215159052565b50606082015161227860608501826001600160401b03169052565b506080820151608084015260a082015160a084015260c082015160c084015260e082015161010060e085015261190d610100850182611f42565b602081525f610a55602083018461222f565b5f602082016020835280845180835260408501915060408160051b8601019250602086015f5b8281101561231b57603f1987860301845261230685835161222f565b945060209384019391909101906001016122ea565b50929695505050505050565b5f5f60408385031215612338575f5ffd5b61234183611f99565b915061234f60208401611f99565b90509250929050565b600181811c9082168061236c57607f821691505b60208210810361238a57634e487b7160e01b5f52602260045260245ffd5b50919050565b634e487b7160e01b5f52603260045260245ffd5b634e487b7160e01b5f52601160045260245ffd5b60ff818116838216019081111561048a5761048a6123a4565b5f81518060208401855e5f93019283525090919050565b5f61190d6123f683866123d1565b846123d1565b8181038181111561048a5761048a6123a4565b8082018082111561048a5761048a6123a4565b601f82111561071f57805f5260205f20601f840160051c810160208510156124475750805b601f840160051c820191505b81811015611679575f8155600101612453565b81516001600160401b0381111561247f5761247f6120fa565b6124938161248d8454612358565b84612422565b6020601f8211600181146124c5575f83156124ae5750848201515b5f19600385901b1c1916600184901b178455611679565b5f84815260208120601f198516915b828110156124f457878501518255602094850194600190920191016124d4565b508482101561251157868401515f19600387901b60f8161c191681555b50505050600190811b01905550565b5f60018201612531576125316123a4565b5060010190565b86815260a060208201528460a0820152848660c08301375f60c086830101525f60c0601f19601f88011683010190506001600160401b03851660408301528360608301528215156080830152979650505050505050565b6001600160a01b03858116825284166020820152604081018390526080606082018190525f906125c190830184611f42565b9695505050505050565b5f602082840312156125db575f5ffd5b8151610a5581611f12565b634e487b7160e01b5f52603160045260245ffdfea26469706673582212203b1152e5993fdb65bcede625c9547f5c4af34ba5964918d7f7dd025c8cade2e864736f6c634300081c0033",
  "linkReferences": {},
  "deployedLinkReferences": {},
  "immutableReferences": {
    "8096": [
      {
        "length": 32,
        "start": 610
      },
      {
        "length": 32,
        "start": 3116
      },
      {
        "length": 32,
        "start": 3158
      }
    ],
    "8099": [
      {
        "length": 32,
        "start": 883
      },
      {
        "length": 32,
        "start": 2231
      }
    ]
  },
  "inputSourceName": "project/contracts/ManuscriptRegistry.sol",
  "buildInfoId": "solc-0_8_28-813f9e8058156d7c1119d2461bb5410ff471a03d"
}