{
  "_format": "hh3-artifact-1",
  "contractName": "ManuscriptRegistry",
  "sourceName": "contracts/ManuscriptRegistry.sol",
  "abi": [
    {
      "inputs": [
        {
          "internalType": "uint8",
          "name": "max",
          "type": "uint8"
        },
        {
          "internalType": "uint8",
          "name": "maxDepth",
          "type": "uint8"
        }
      ],
      "stateMutability": "nonpayable",
      "type": "constructor"
    },
    {
      "inputs": [],
      "name": "ActiveManuscript",
      "type": "error"
    },
    {
      "inputs": [],
      "name": "ChainTooDeep",
      "type": "error"
    },
    {
      "inputs": [],
      "name": "ERC721EnumerableForbiddenBatchMint",
      "type": "error"
    },
    {
      "inputs": [
        {
          "internalType": "address",
          "name": "sender",
          "type": "address"
        },
        {
          "internalType": "uint256",
          "name": "tokenId",
          "type": "uint256"
        },
        {
          "internalType": "address",
          "name": "owner",
          "type": "address"
        }
      ],
      "name": "ERC721IncorrectOwner",
      "type": "error"
    },
    {
      "inputs": [
        {
          "internalType": "address",
          "name": "operator",
          "type": "address"
        },
        {
          "internalType": "uint256",
          "name": "tokenId",
          "type": "uint256"
        }
      ],
      "name": "ERC721InsufficientApproval",
      "type": "error"
    },
    {
      "inputs": [
        {
          "internalType": "address",
          "name": "approver",
          "type": "address"
        }
      ],
      "name": "ERC721InvalidApprover",
      "type": "error"
    },
    {
      "inputs": [
        {
          "internalType": "address",
          "name": "operator",
          "type": "address"
        }
      ],
      "name": "ERC721InvalidOperator",
      "type": "error"
    },
    {
      "inputs": [
        {
          "internalType": "address",
          "name": "owner",
          "type": "address"
        }
      ],
      "name": "ERC721InvalidOwner",
      "type": "error"
    },
    {
      "inputs": [
        {
          "internalType": "address",
          "name": "receiver",
          "type": "address"
        }
      ],
      "name": "ERC721InvalidReceiver",
      "type": "error"
    },
    {
      "inputs": [
        {
          "internalType": "address",
          "name": "sender",
          "type": "address"
        }
      ],
      "name": "ERC721InvalidSender",
      "type": "error"
    },
    {
      "inputs": [
        {
          "internalType": "uint256",
          "name": "tokenId",
          "type": "uint256"
        }
      ],
      "name": "ERC721NonexistentToken",
      "type": "error"
    },
    {
      "inputs": [
        {
          "internalType": "address",
          "name": "owner",
          "type": "address"
        },
        {
          "internalType": "uint256",
          "name": "index",
          "type": "uint256"
        }
      ],
      "name": "ERC721OutOfBoundsIndex",
      "type": "error"
    },
    {
      "inputs": [],
      "name": "EnforcedPause",
      "type": "error"
    },
    {
      "inputs": [],
      "name": "ExpectedPause",
      "type": "error"
    },
    {
      "inputs": [],
      "name": "ManuscriptAlreadyArchived",
      "type": "error"
    },
    {
      "inputs": [],
      "name": "ManuscriptAlreadyExists",
      "type": "error"
    },
    {
      "inputs": [],
      "name": "ManuscriptNotFound",
      "type": "error"
    },
    {
      "inputs": [],
      "name": "OriginManuscriptAlreadyArchived",
      "type": "error"
    },
    {
      "inputs": [],
      "name": "OriginManuscriptNotFound",
      "type": "error"
    },
    {
      "inputs": [
        {
          "internalType": "address",
          "name": "owner",
          "type": "address"
        }
      ],
      "name": "OwnableInvalidOwner",
      "type": "error"
    },
    {
      "inputs": [
        {
          "internalType": "address",
          "name": "account",
          "type": "address"
        }
      ],
      "name": "OwnableUnauthorizedAccount",
      "type": "error"
    },
    {
      "inputs": [],
      "name": "TitleEmpty",
      "type": "error"
    },
    {
      "inputs": [],
      "name": "TitleTooLong",
      "type": "error"
    },
    {
      "inputs": [],
      "name": "TransferNotAllowed",
      "type": "error"
    },
    {
      "inputs": [],
      "name": "Unauthorized",
      "type": "error"
    },
    {
      "anonymous": false,
      "inputs": [
        {
          "indexed": true,
          "internalType": "address",
          "name": "owner",
          "type": "address"
        },
        {
          "indexed": true,
          "internalType": "address",
          "name": "approved",
          "type": "address"
        },
        {
          "indexed": true,
          "internalType": "uint256",
          "name": "tokenId",
          "type": "uint256"
        }
      ],
      "name": "Approval",
      "type": "event"
    },
    {
      "anonymous": false,
      "inputs": [
        {
          "indexed": true,
          "internalType": "address",
          "name": "owner",
          "type": "address"
        },
        {
          "indexed": true,
          "internalType": "address",
          "name": "operator",
          "type": "address"
        },
        {
          "indexed": false,
          "internalType": "bool",
          "name": "approved",
          "type": "bool"
        }
      ],
      "name": "ApprovalForAll",
      "type": "event"
    },
    {
      "anonymous": false,
      "inputs": [
        {
          "indexed": true,
          "internalType": "uint256",
          "name": "tokenId",
          "type": "uint256"
        },
        {
          "indexed": true,
          "internalType": "address",
          "name": "author",
          "type": "address"
        },
        {
          "indexed": false,
          "internalType": "uint64",
          "name": "timestamp",
          "type": "uint64"
        }
      ],
      "name": "ManuscriptArchived",
      "type": "event"
    },
    {
      "anonymous": false,
      "inputs": [
        {
          "indexed": true,
          "internalType": "uint256",
          "name": "tokenId",
          "type": "uint256"
        },
        {
          "indexed": true,
          "internalType": "address",
          "name": "author",
          "type": "address"
        },
        {
          "indexed": false,
          "internalType": "bytes32",
          "name": "hash",
          "type": "bytes32"
        },
        {
          "indexed": false,
          "internalType": "string",
          "name": "title",
          "type": "string"
        },
        {
          "indexed": false,
          "internalType": "uint64",
          "name": "timestamp",
          "type": "uint64"
        },
        {
          "indexed": false,
          "internalType": "uint256",
          "name": "previousTokenId",
          "type": "uint256"
        },
        {
          "indexed": false,
          "internalType": "bool",
          "name": "hasParent",
          "type": "bool"
        }
      ],
      "name": "ManuscriptRegistered",
      "type": "event"
    },
    {
      "anonymous": false,
      "inputs": [
        {
          "indexed": true,
          "internalType": "uint256",
          "name": "tokenId",
          "type": "uint256"
        },
        {
          "indexed": true,
          "internalType": "address",
          "name": "author",
          "type": "address"
        },
        {
          "indexed": false,
          "internalType": "uint64",
          "name": "timestamp",
          "type": "uint64"
        }
      ],
      "name": "ManuscriptUnarchived",
      "type": "event"
    },
    {
      "anonymous": false,
      "inputs": [
        {
          "indexed": true,
          "internalType": "address",
          "name": "previousOwner",
          "type": "address"
        },
        {
          "indexed": true,
          "internalType": "address",
          "name": "newOwner",
          "type": "address"
        }
      ],
      "name": "OwnershipTransferred",
      "type": "event"
    },
    {
      "anonymous": false,
      "inputs": [
        {
          "indexed": false,
          "internalType": "address",
          "name": "account",
          "type": "address"
        }
      ],
      "name": "Paused",
      "type": "event"
    },
    {
      "anonymous": false,
      "inputs": [
        {
          "indexed": true,
          "internalType": "address",
          "name": "from",
          "type": "address"
        },
        {
          "indexed": true,
          "internalType": "address",
          "name": "to",
          "type": "address"
        },
        {
          "indexed": true,
          "internalType": "uint256",
          "name": "tokenId",
          "type": "uint256"
        }
      ],
      "name": "Transfer",
      "type": "event"
    },
    {
      "anonymous": false,
      "inputs": [
        {
          "indexed": false,
          "internalType": "address",
          "name": "account",
          "type": "address"
        }
      ],
      "name": "Unpaused",
      "type": "event"
    },
    {
      "inputs": [],
      "name": "MAX_CHAIN_DEPTH",
      "outputs": [
        {
          "internalType": "uint8",
          "name": "",
          "type": "uint8"
        }
      ],
      "stateMutability": "view",
      "type": "function"
    },
    {
      "inputs": [],
      "name": "MAX_MANUSCRIPTS_PER_QUERY",
      "outputs": [
        {
          "internalType": "uint8",
          "name": "",
          "type": "uint8"
        }
      ],
      "stateMutability": "view",
      "type": "function"
    },
    {
      "inputs": [
        {
          "internalType": "address",
          "name": "to",
          "type": "address"
        },
        {
          "internalType": "uint256",
          "name": "tokenId",
          "type": "uint256"
        }
      ],
      "name": "approve",
      "outputs": [],
      "stateMutability": "nonpayable",
      "type": "function"
    },
    {
      "inputs": [
        {
          "internalType": "uint256",
          "name": "tokenId",
          "type": "uint256"
        }
      ],
      "name": "archiveManuscript",
      "outputs": [],
      "stateMutability": "nonpayable",
      "type": "function"
    },
    {
      "inputs": [
        {
          "internalType": "address",
          "name": "owner",
          "type": "address"
        }
      ],
      "name": "balanceOf",
      "outputs": [
        {
          "internalType": "uint256",
          "name": "",
          "type": "uint256"
        }
      ],
      "stateMutability": "view",
      "type": "function"
    },
    {
      "inputs": [
        {
          "internalType": "uint256",
          "name": "tokenId",
          "type": "uint256"
        }
      ],
      "name": "getApproved",
      "outputs": [
        {
          "internalType": "address",
          "name": "",
          "type": "address"
        }
      ],
      "stateMutability": "view",
      "type": "function"
    },
    {
      "inputs": [
        {
          "internalType": "bytes32",
          "name": "hash",
          "type": "bytes32"
        }
      ],
      "name": "getManuscriptByHash",
      "outputs": [
        {
          "components": [
            {
              "internalType": "address",
              "name": "author",
              "type": "address"
            },
            {
              "internalType": "bool",
              "name": "archived",
              "type": "bool"
            },
            {
              "internalType": "bool",
              "name": "hasParent",
              "type": "bool"
            },
            {
              "internalType": "uint64",
              "name": "timestamp",
              "type": "uint64"
            },
            {
              "internalType": "uint256",
              "name": "tokenId",
              "type": "uint256"
            },
            {
              "internalType": "bytes32",
              "name": "hash",
              "type": "bytes32"
            },
            {
              "internalType": "uint256",
              "name": "previousTokenId",
              "type": "uint256"
            },
            {
              "internalType": "string",
              "name": "title",
              "type": "string"
            }
          ],
          "internalType": "struct ManuscriptRegistry.Manuscript",
          "name": "",
          "type": "tuple"
        }
      ],
      "stateMutability": "view",
      "type": "function"
    },
    {
      "inputs": [
        {
          "internalType": "uint256",
          "name": "tokenId",
          "type": "uint256"
        }
      ],
      "name": "getManuscriptByTokenId",
      "outputs": [
        {
          "components": [
            {
              "internalType": "address",
              "name": "author",
              "type": "address"
            },
            {
              "internalType": "bool",
              "name": "archived",
              "type": "bool"
            },
            {
              "internalType": "bool",
              "name": "hasParent",
              "type": "bool"
            },
            {
              "internalType": "uint64",
              "name": "timestamp",
              "type": "uint64"
            },
            {
              "internalType": "uint256",
              "name": "tokenId",
              "type": "uint256"
            },
            {
              "internalType": "bytes32",
              "name": "hash",
              "type": "bytes32"
            },
            {
              "internalType": "uint256",
              "name": "previousTokenId",
              "type": "uint256"
            },
            {
              "internalType": "string",
              "name": "title",
              "type": "string"
            }
          ],
          "internalType": "struct ManuscriptRegistry.Manuscript",
          "name": "",
          "type": "tuple"
        }
      ],
      "stateMutability": "view",
      "type": "function"
    },
    {
      "inputs": [
        {
          "internalType": "address",
          "name": "author",
          "type": "address"
        },
        {
          "internalType": "uint256",
          "name": "offset",
          "type": "uint256"
        }
      ],
      "name": "getManuscriptsByAuthor",
      "outputs": [
        {
          "components": [
            {
              "internalType": "address",
              "name": "author",
              "type": "address"
            },
            {
              "internalType": "bool",
              "name": "archived",
              "type": "bool"
            },
            {
              "internalType": "bool",
              "name": "hasParent",
              "type": "bool"
            },
            {
              "internalType": "uint64",
              "name": "timestamp",
              "type": "uint64"
            },
            {
              "internalType": "uint256",
              "name": "tokenId",
              "type": "uint256"
            },
            {
              "internalType": "bytes32",
              "name": "hash",
              "type": "bytes32"
            },
            {
              "internalType": "uint256",
              "name": "previousTokenId",
              "type": "uint256"
            },
            {
              "internalType": "string",
              "name": "title",
              "type": "string"
            }
          ],
          "internalType": "struct ManuscriptRegistry.Manuscript[]",
          "name": "",
          "type": "tuple[]"
        }
      ],
      "stateMutability": "view",
      "type": "function"
    },
    {
      "inputs": [
        {
          "internalType": "address",
          "name": "owner",
          "type": "address"
        },
        {
          "internalType": "address",
          "name": "operator",
          "type": "address"
        }
      ],
      "name": "isApprovedForAll",
      "outputs": [
        {
          "internalType": "bool",
          "name": "",
          "type": "bool"
        }
      ],
      "stateMutability": "view",
      "type": "function"
    },
    {
      "inputs": [],
      "name": "name",
      "outputs": [
        {
          "internalType": "string",
          "name": "",
          "type": "string"
        }
      ],
      "stateMutability": "view",
      "type": "function"
    },
    {
      "inputs": [],
      "name": "owner",
      "outputs": [
        {
          "internalType": "address",
          "name": "",
          "type": "address"
        }
      ],
      "stateMutability": "view",
      "type": "function"
    },
    {
      "inputs": [
        {
          "internalType": "uint256",
          "name": "tokenId",
          "type": "uint256"
        }
      ],
      "name": "ownerOf",
      "outputs": [
        {
          "internalType": "address",
          "name": "",
          "type": "address"
        }
      ],
      "stateMutability": "view",
      "type": "function"
    },
    {
      "inputs": [],
      "name": "pause",
      "outputs": [],
      "stateMutability": "nonpayable",
      "type": "function"
    },
    {
      "inputs": [],
      "name": "paused",
      "outputs": [
        {
          "internalType": "bool",
          "name": "",
          "type": "bool"
        }
      ],
      "stateMutability": "view",
      "type": "function"
    },
    {
      "inputs": [
        {
          "internalType": "bytes32",
          "name": "hash",
          "type": "bytes32"
        },
        {
          "internalType": "string",
          "name": "title",
          "type": "string"
        }
      ],
      "name": "registerManuscript",
      "outputs": [],
      "stateMutability": "nonpayable",
      "type": "function"
    },
    {
      "inputs": [
        {
          "internalType": "bytes32",
          "name": "hash",
          "type": "bytes32"
        },
        {
          "internalType": "string",
          "name": "title",
          "type": "string"
        },
        {
          "internalType": "uint256",
          "name": "previousTokenId",
          "type": "uint256"
        }
      ],
      "name": "registerNewVersion",
      "outputs": [],
      "stateMutability": "nonpayable",
      "type": "function"
    },
    {
      "inputs": [],
      "name": "renounceOwnership",
      "outputs": [],
      "stateMutability": "nonpayable",
      "type": "function"
    },
    {
      "inputs": [
        {
          "internalType": "address",
          "name": "from",
          "type": "address"
        },
        {
          "internalType": "address",
          "name": "to",
          "type": "address"
        },
        {
          "internalType": "uint256",
          "name": "tokenId",
          "type": "uint256"
        }
      ],
      "name": "safeTransferFrom",
      "outputs": [],
      "stateMutability": "nonpayable",
      "type": "function"
    },
    {
      "inputs": [
        {
          "internalType": "address",
          "name": "from",
          "type": "address"
        },
        {
          "internalType": "address",
          "name": "to",
          "type": "address"
        },
        {
          "internalType": "uint256",
          "name": "tokenId",
          "type": "uint256"
        },
        {
          "internalType": "bytes",
          "name": "data",
          "type": "bytes"
        }
      ],
      "name": "safeTransferFrom",
      "outputs": [],
      "stateMutability": "nonpayable",
      "type": "function"
    },
    {
      "inputs": [
        {
          "internalType": "address",
          "name": "operator",
          "type": "address"
        },
        {
          "internalType": "bool",
          "name": "approved",
          "type": "bool"
        }
      ],
      "name": "setApprovalForAll",
      "outputs": [],
      "stateMutability": "nonpayable",
      "type": "function"
    },
    {
      "inputs": [
        {
          "internalType": "bytes4",
          "name": "interfaceId",
          "type": "bytes4"
        }
      ],
      "name": "supportsInterface",
      "outputs": [
        {
          "internalType": "bool",
          "name": "",
          "type": "bool"
        }
      ],
      "stateMutability": "view",
      "type": "function"
    },
    {
      "inputs": [],
      "name": "symbol",
      "outputs": [
        {
          "internalType": "string",
          "name": "",
          "type": "string"
        }
      ],
      "stateMutability": "view",
      "type": "function"
    },
    {
      "inputs": [
        {
          "internalType": "uint256",
          "name": "index",
          "type": "uint256"
        }
      ],
      "name": "tokenByIndex",
      "outputs": [
        {
          "internalType": "uint256",
          "name": "",
          "type": "uint256"
        }
      ],
      "stateMutability": "view",
      "type": "function"
    },
    {
      "inputs": [
        {
          "internalType": "address",
          "name": "owner",
          "type": "address"
        },
        {
          "internalType": "uint256",
          "name": "index",
          "type": "uint256"
        }
      ],
      "name": "tokenOfOwnerByIndex",
      "outputs": [
        {
          "internalType": "uint256",
          "name": "",
          "type": "uint256"
        }
      ],
      "stateMutability": "view",
      "type": "function"
    },
    {
      "inputs": [
        {
          "internalType": "uint256",
          "name": "tokenId",
          "type": "uint256"
        }
      ],
      "name": "tokenURI",
      "outputs": [
        {
          "internalType": "string",
          "name": "",
          "type": "string"
        }
      ],
      "stateMutability": "view",
      "type": "function"
    },
    {
      "inputs": [],
      "name": "totalSupply",
      "outputs": [
        {
          "internalType": "uint256",
          "name": "",
          "type": "uint256"
        }
      ],
      "stateMutability": "view",
      "type": "function"
    },
    {
      "inputs": [
        {
          "internalType": "address",
          "name": "from",
          "type": "address"
        },
        {
          "internalType": "address",
          "name": "to",
          "type": "address"
        },
        {
          "internalType": "uint256",
          "name": "tokenId",
          "type": "uint256"
        }
      ],
      "name": "transferFrom",
      "outputs": [],
      "stateMutability": "nonpayable",
      "type": "function"
    },
    {
      "inputs": [
        {
          "internalType": "address",
          "name": "newOwner",
          "type": "address"
        }
      ],
      "name": "transferOwnership",
      "outputs": [],
      "stateMutability": "nonpayable",
      "type": "function"
    },
    {
      "inputs": [
        {
          "internalType": "uint256",
          "name": "tokenId",
          "type": "uint256"
        }
      ],
      "name": "unarchiveManuscript",
      "outputs": [],
      "stateMutability": "nonpayable",
      "type": "function"
    },
    {
      "inputs": [],
      "name": "unpause",
      "outputs": [],
      "stateMutability": "nonpayable",
      "type": "function"
    }
  ],
  "bytecode": "0x60c06040526001600b55348015610014575f5ffd5b5060405161293538038061293583398101604081905261003391610149565b336040518060400160405280600b81526020016a2a3437ba3427b934b3b4b760a91b81525060405180604001604052806004815260200163151213d560e21b815250815f90816100839190610212565b5060016100908282610212565b5050506001600160a01b0381166100c057604051631e4fbdf760e01b81525f600482015260240160405180910390fd5b6100c9816100db565b5060ff9182166080521660a0526102cc565b600a80546001600160a01b03838116610100818102610100600160a81b031985161790945560405193909204169182907f8be0079c531659141344cd1fd0a4f28419497f9722a3daafe3b4186f6b6457e0905f90a35050565b805160ff81168114610144575f5ffd5b919050565b5f5f6040838503121561015a575f5ffd5b61016383610134565b915061017160208401610134565b90509250929050565b634e487b7160e01b5f52604160045260245ffd5b600181811c908216806101a257607f821691505b6020821081036101c057634e487b7160e01b5f52602260045260245ffd5b50919050565b601f82111561020d57805f5260205f20601f840160051c810160208510156101eb5750805b601f840160051c820191505b8181101561020a575f81556001016101f7565b50505b505050565b81516001600160401b0381111561022b5761022b61017a565b61023f81610239845461018e565b846101c6565b6020601f821160018114610271575f831561025a5750848201515b5f19600385901b1c1916600184901b17845561020a565b5f84815260208120601f198516915b828110156102a05787850151825560209485019460019092019101610280565b50848210156102bd57868401515f19600387901b60f8161c191681555b50505050600190811b01905550565b60805160a0516126336103025f395f818161037301526108fc01525f818161026201528181610cca0152610cf401526126335ff3fe608060405234801561000f575f5ffd5b50600436106101dc575f3560e01c8063715018a611610109578063c1e2aa371161009e578063df7cf9cb1161006e578063df7cf9cb14610427578063e985e9c514610447578063f2fde38b1461045a578063fcbb8c571461046d575f5ffd5b8063c1e2aa37146103ce578063c87b56dd146103e1578063d14d8bc8146103f4578063d67a182314610407575f5ffd5b80639641df3d116100d95780639641df3d1461036e578063a22cb46514610395578063a2e0a33e146103a8578063b88d4fde146103bb575f5ffd5b8063715018a6146103405780638456cb59146103485780638da5cb5b1461035057806395d89b4114610366575f5ffd5b8063280072cc1161017f5780634f6ccce71161014f5780634f6ccce7146102fc5780635c975abb1461030f5780636352211e1461031a57806370a082311461032d575f5ffd5b8063280072cc146102bb5780632f745c59146102ce5780633f4ba83a146102e157806342842e0e146102e9575f5ffd5b8063095ea7b3116101ba578063095ea7b314610248578063157fb5a61461025d57806318160ddd1461029657806323b872dd146102a8575f5ffd5b806301ffc9a7146101e057806306fdde0314610208578063081812fc1461021d575b5f5ffd5b6101f36101ee366004611f2a565b610480565b60405190151581526020015b60405180910390f35b610210610490565b6040516101ff9190611f73565b61023061022b366004611f85565b61051f565b6040516001600160a01b0390911681526020016101ff565b61025b610256366004611fb7565b610546565b005b6102847f000000000000000000000000000000000000000000000000000000000000000081565b60405160ff90911681526020016101ff565b6008545b6040519081526020016101ff565b61025b6102b6366004611fdf565b610555565b61025b6102c9366004611f85565b6105e3565b61029a6102dc366004611fb7565b6106d5565b61025b610738565b61025b6102f7366004611fdf565b61074a565b61029a61030a366004611f85565b610769565b600a5460ff166101f3565b610230610328366004611f85565b6107be565b61029a61033b366004612019565b6107c8565b61025b61080d565b61025b61081e565b600a5461010090046001600160a01b0316610230565b61021061082e565b6102847f000000000000000000000000000000000000000000000000000000000000000081565b61025b6103a3366004612032565b61083d565b61025b6103b63660046120af565b610848565b61025b6103c9366004612111565b610989565b61025b6103dc366004611f85565b6109a1565b6102106103ef366004611f85565b610a8a565b61025b6104023660046121eb565b610afb565b61041a610415366004611f85565b610b10565b6040516101ff91906122b5565b61043a610435366004611fb7565b610c6c565b6040516101ff91906122c7565b6101f361045536600461232a565b610edc565b61025b610468366004612019565b610f09565b61041a61047b366004611f85565b610f46565b5f61048a82610f90565b92915050565b60605f805461049e9061235b565b80601f01602080910402602001604051908101604052809291908181526020018280546104ca9061235b565b80156105155780601f106104ec57610100808354040283529160200191610515565b820191905f5260205f20905b8154815290600101906020018083116104f857829003601f168201915b5050505050905090565b5f61052982610fb4565b505f828152600460205260409020546001600160a01b031661048a565b610551828233610fec565b5050565b6001600160a01b03821661058357604051633250574960e11b81525f60048201526024015b60405180910390fd5b5f61058f838333610ff9565b9050836001600160a01b0316816001600160a01b0316146105dd576040516364283d7b60e01b81526001600160a01b038086166004830152602482018490528216604482015260640161057a565b50505050565b5f8181526002602052604090205481906001600160a01b0316610619576040516314bd59cd60e21b815260040160405180910390fd5b33610623826107be565b6001600160a01b031614610649576040516282b42960e81b815260040160405180910390fd5b610651611059565b5f828152600c6020526040902054600160a01b900460ff16156106875760405163f127640760e01b815260040160405180910390fd5b6106908261107d565b6040516001600160401b0342168152339083907f0bb9a77ccb7c4cd7e6321b4a4f45ddda12dc42db8ef537676bf742f9d2e61f25906020015b60405180910390a35050565b5f6106df836107c8565b82106107105760405163295f44f760e21b81526001600160a01b03841660048201526024810183905260440161057a565b506001600160a01b03919091165f908152600660209081526040808320938352929052205490565b610740611157565b61074861118a565b565b61076483838360405180602001604052805f815250610989565b505050565b5f61077360085490565b821061079b5760405163295f44f760e21b81525f60048201526024810183905260440161057a565b600882815481106107ae576107ae612393565b905f5260205f2001549050919050565b5f61048a82610fb4565b5f6001600160a01b0382166107f2576040516322718ad960e21b81525f600482015260240161057a565b506001600160a01b03165f9081526003602052604090205490565b610815611157565b6107485f6111dc565b610826611157565b610748611235565b60606001805461049e9061235b565b610551338383611272565b610850611059565b5f818152600260205260409020546001600160a01b031661088457604051635ddfbc8760e11b815260040160405180910390fd5b3361088e826107be565b6001600160a01b0316146108b4576040516282b42960e81b815260040160405180910390fd5b5f818152600c6020526040902054600160a01b900460ff16156108ea57604051638c7828fb60e01b815260040160405180910390fd5b5f818152600f602052604090205460ff7f0000000000000000000000000000000000000000000000000000000000000000811691161061093d5760405163d93ed10160e01b815260040160405180910390fd5b5f818152600f60205260409020546109599060ff1660016123bb565b600b545f908152600f60205260409020805460ff191660ff929092169190911790556105dd848484846001611339565b610994848484610555565b6105dd338585858561159b565b5f8181526002602052604090205481906001600160a01b03166109d7576040516314bd59cd60e21b815260040160405180910390fd5b336109e1826107be565b6001600160a01b031614610a07576040516282b42960e81b815260040160405180910390fd5b610a0f611059565b5f828152600c6020526040902054600160a01b900460ff16610a44576040516350509b4760e01b815260040160405180910390fd5b610a4d826116c3565b6040516001600160401b0342168152339083907f380f53c215c06a3052cbd6232d4a640236daa1311c4fc7a9e95c7914efdf62dc906020016106c9565b6060610a9582610fb4565b505f610aab60408051602081019091525f815290565b90505f815111610ac95760405180602001604052805f815250610af4565b80610ad38461171a565b604051602001610ae49291906123eb565b6040516020818303038152906040525b9392505050565b610b03611059565b6107648383835f5f611339565b610b18611ec1565b5f828152600260205260409020546001600160a01b0316610b4c576040516314bd59cd60e21b815260040160405180910390fd5b5f828152600c602090815260409182902082516101008101845281546001600160a01b0381168252600160a01b810460ff908116151594830194909452600160a81b8104909316151593810193909352600160b01b9091046001600160401b0316606083015260018101546080830152600281015460a0830152600381015460c083015260048101805460e084019190610be59061235b565b80601f0160208091040260200160405190810160405280929190818152602001828054610c119061235b565b8015610c5c5780601f10610c3357610100808354040283529160200191610c5c565b820191905f5260205f20905b815481529060010190602001808311610c3f57829003601f168201915b5050505050815250509050919050565b60605f610c78846107c8565b9050808310610cba57604080515f8082526020820190925290610cb1565b610c9e611ec1565b815260200190600190039081610c965790505b5091505061048a565b5f610cc584836123ff565b90505f7f000000000000000000000000000000000000000000000000000000000000000060ff168210610d1b577f000000000000000000000000000000000000000000000000000000000000000060ff16610d1d565b815b90505f816001600160401b03811115610d3857610d386120fd565b604051908082528060200260200182016040528015610d7157816020015b610d5e611ec1565b815260200190600190039081610d565790505b5090505f5b82811015610ed157600c5f610d8f8a6102dc858c612412565b815260208082019290925260409081015f2081516101008101835281546001600160a01b0381168252600160a01b810460ff908116151595830195909552600160a81b8104909416151592810192909252600160b01b9092046001600160401b0316606082015260018201546080820152600282015460a0820152600382015460c082015260048201805491929160e084019190610e2c9061235b565b80601f0160208091040260200160405190810160405280929190818152602001828054610e589061235b565b8015610ea35780601f10610e7a57610100808354040283529160200191610ea3565b820191905f5260205f20905b815481529060010190602001808311610e8657829003601f168201915b505050505081525050828281518110610ebe57610ebe612393565b6020908102919091010152600101610d76565b509695505050505050565b6001600160a01b039182165f90815260056020908152604080832093909416825291909152205460ff1690565b610f11611157565b6001600160a01b038116610f3a57604051631e4fbdf760e01b81525f600482015260240161057a565b610f43816111dc565b50565b610f4e611ec1565b5f828152600d6020526040902054610f79576040516314bd59cd60e21b815260040160405180910390fd5b5f828152600d602052604090205461048a90610b10565b5f6001600160e01b0319821663780e9d6360e01b148061048a575061048a826117a9565b5f818152600260205260408120546001600160a01b03168061048a57604051637e27328960e01b81526004810184905260240161057a565b61076483838360016117f8565b5f828152600260205260408120546001600160a01b0316801580159061102757506001600160a01b03851615155b1561104557604051638cd22d1960e01b815260040160405180910390fd5b6110508585856118fc565b95945050505050565b600a5460ff16156107485760405163d93c066560e01b815260040160405180910390fd5b611088816001611918565b5f818152600e60209081526040808320805482518185028101850190935280835291929091908301828280156110db57602002820191905f5260205f20905b8154815260200190600101908083116110c7575b509394505f93505050505b815181101561076457600c5f83838151811061110457611104612393565b602002602001015181526020019081526020015f205f0160149054906101000a900460ff1661114f5761114f82828151811061114257611142612393565b602002602001015161107d565b6001016110e6565b600a546001600160a01b036101009091041633146107485760405163118cdaa760e01b815233600482015260240161057a565b611192611942565b600a805460ff191690557f5db9ee0a495bf2e6ff9c91a7834c1ba4fdd244a5e8aa4e537bd38aeae4b073aa335b6040516001600160a01b03909116815260200160405180910390a1565b600a80546001600160a01b03838116610100818102610100600160a81b031985161790945560405193909204169182907f8be0079c531659141344cd1fd0a4f28419497f9722a3daafe3b4186f6b6457e0905f90a35050565b61123d611059565b600a805460ff191660011790557f62e78cea01bee320cd4e420270b5ea74000d11b0c9f74754ebdbfc544b05a2586111bf3390565b6001600160a01b03831661129b5760405163a9fbf51f60e01b81525f600482015260240161057a565b6001600160a01b0382166112cd57604051630b61174360e31b81526001600160a01b038316600482015260240161057a565b6001600160a01b038381165f81815260056020908152604080832094871680845294825291829020805460ff191686151590811790915591519182527f17307eab39ab6107e8899845ad3d59bd9653f200f220920489ca2b5937696c31910160405180910390a3505050565b828061135857604051635d0ff12d60e01b815260040160405180910390fd5b606481111561137a576040516324a25c5760e01b815260040160405180910390fd5b5f868152600d6020526040902054156113a65760405163334129ed60e01b815260040160405180910390fd5b600b54429083156113d2575f858152600e60209081526040822080546001810182559083529120018190555b604051806101000160405280336001600160a01b031681526020015f151581526020018515158152602001836001600160401b0316815260200182815260200189815260200186815260200188888080601f0160208091040260200160405190810160405280939291908181526020018383808284375f920182905250939094525050838152600c602090815260409182902084518154928601519386015160608701516001600160401b0316600160b01b0267ffffffffffffffff60b01b19911515600160a81b029190911668ffffffffffffffffff60a81b19951515600160a01b026001600160a81b03199095166001600160a01b03909316929092179390931793909316929092171781556080830151600182015560a0830151600282015560c0830151600382015560e083015190915060048201906115159082612469565b5050505f888152600d60205260408120829055600b80549161153683612523565b91905055506115453382611965565b336001600160a01b0316817f78d2183b21e05f7a2f19af32e667731390e06ac07000c78cfc5b879407b962aa8a8a8a878b8b6040516115899695949392919061253b565b60405180910390a35050505050505050565b6001600160a01b0383163b156116bc57604051630a85bd0160e11b81526001600160a01b0384169063150b7a02906115dd908890889087908790600401612592565b6020604051808303815f875af1925050508015611617575060408051601f3d908101601f19168201909252611614918101906125ce565b60015b61167e573d808015611644576040519150601f19603f3d011682016040523d82523d5f602084013e611649565b606091505b5080515f0361167657604051633250574960e11b81526001600160a01b038516600482015260240161057a565b805160208201fd5b6001600160e01b03198116630a85bd0160e11b146116ba57604051633250574960e11b81526001600160a01b038516600482015260240161057a565b505b5050505050565b6116cd815f611918565b5f818152600c6020526040902054600160a81b900460ff1615610f43575f818152600c602052604080822060030154808352912054600160a01b900460ff161561055157610551816116c3565b60605f6117268361197e565b60010190505f816001600160401b03811115611744576117446120fd565b6040519080825280601f01601f19166020018201604052801561176e576020820181803683370190505b5090508181016020015b5f19016f181899199a1a9b1b9c1cb0b131b232b360811b600a86061a8153600a850494508461177857509392505050565b5f6001600160e01b031982166380ac58cd60e01b14806117d957506001600160e01b03198216635b5e139f60e01b145b8061048a57506301ffc9a760e01b6001600160e01b031983161461048a565b808061180c57506001600160a01b03821615155b156118cd575f61181b84610fb4565b90506001600160a01b038316158015906118475750826001600160a01b0316816001600160a01b031614155b801561185a57506118588184610edc565b155b156118835760405163a9fbf51f60e01b81526001600160a01b038416600482015260240161057a565b81156118cb5783856001600160a01b0316826001600160a01b03167f8c5be1e5ebec7d5bd14f71427d1e84f3dd0314c0f7b2291e5b200ac8c7c3b92560405160405180910390a45b505b50505f90815260046020526040902080546001600160a01b0319166001600160a01b0392909216919091179055565b5f611905611059565b611910848484611a55565b949350505050565b5f918252600c60205260409091208054911515600160a01b0260ff60a01b19909216919091179055565b600a5460ff1661074857604051638dfc202b60e01b815260040160405180910390fd5b610551828260405180602001604052805f815250611b20565b5f8072184f03e93ff9f4daa797ed6e38ed64bf6a1f0160401b83106119bc5772184f03e93ff9f4daa797ed6e38ed64bf6a1f0160401b830492506040015b6d04ee2d6d415b85acef810000000083106119e8576d04ee2d6d415b85acef8100000000830492506020015b662386f26fc100008310611a0657662386f26fc10000830492506010015b6305f5e1008310611a1e576305f5e100830492506008015b6127108310611a3257612710830492506004015b60648310611a44576064830492506002015b600a831061048a5760010192915050565b5f5f611a62858585611b37565b90506001600160a01b038116611abe57611ab984600880545f838152600960205260408120829055600182018355919091527ff3f7a9fe364faab93b216da50a3214154f22a0a2b415b23a84c8169e8b636ee30155565b611ae1565b846001600160a01b0316816001600160a01b031614611ae157611ae18185611c29565b6001600160a01b038516611afd57611af884611ca6565b611910565b846001600160a01b0316816001600160a01b031614611910576119108585611d4d565b611b2a8383611d9b565b610764335f85858561159b565b5f828152600260205260408120546001600160a01b0390811690831615611b6357611b63818486611dfc565b6001600160a01b03811615611b9d57611b7e5f855f5f6117f8565b6001600160a01b0381165f90815260036020526040902080545f190190555b6001600160a01b03851615611bcb576001600160a01b0385165f908152600360205260409020805460010190555b5f8481526002602052604080822080546001600160a01b0319166001600160a01b0389811691821790925591518793918516917fddf252ad1be2c89b69c2b068fc378daa952ba7f163c4a11628f55a4df523b3ef91a4949350505050565b5f611c33836107c8565b5f838152600760209081526040808320546001600160a01b0388168452600690925290912091925090818314611c88575f83815260208281526040808320548584528184208190558352600790915290208290555b5f938452600760209081526040808620869055938552525081205550565b6008545f90611cb7906001906123ff565b5f8381526009602052604081205460088054939450909284908110611cde57611cde612393565b905f5260205f20015490508060088381548110611cfd57611cfd612393565b5f918252602080832090910192909255828152600990915260408082208490558582528120556008805480611d3457611d346125e9565b600190038181905f5260205f20015f9055905550505050565b5f6001611d59846107c8565b611d6391906123ff565b6001600160a01b039093165f908152600660209081526040808320868452825280832085905593825260079052919091209190915550565b6001600160a01b038216611dc457604051633250574960e11b81525f600482015260240161057a565b5f611dd083835f610ff9565b90506001600160a01b03811615610764576040516339e3563760e11b81525f600482015260240161057a565b611e07838383611e60565b610764576001600160a01b038316611e3557604051637e27328960e01b81526004810182905260240161057a565b60405163177e802f60e01b81526001600160a01b03831660048201526024810182905260440161057a565b5f6001600160a01b038316158015906119105750826001600160a01b0316846001600160a01b03161480611e995750611e998484610edc565b806119105750505f908152600460205260409020546001600160a01b03908116911614919050565b6040518061010001604052805f6001600160a01b031681526020015f151581526020015f151581526020015f6001600160401b031681526020015f81526020015f81526020015f8152602001606081525090565b6001600160e01b031981168114610f43575f5ffd5b5f60208284031215611f3a575f5ffd5b8135610af481611f15565b5f81518084528060208401602086015e5f602082860101526020601f19601f83011685010191505092915050565b602081525f610af46020830184611f45565b5f60208284031215611f95575f5ffd5b5035919050565b80356001600160a01b0381168114611fb2575f5ffd5b919050565b5f5f60408385031215611fc8575f5ffd5b611fd183611f9c565b946020939093013593505050565b5f5f5f60608486031215611ff1575f5ffd5b611ffa84611f9c565b925061200860208501611f9c565b929592945050506040919091013590565b5f60208284031215612029575f5ffd5b610af482611f9c565b5f5f60408385031215612043575f5ffd5b61204c83611f9c565b915060208301358015158114612060575f5ffd5b809150509250929050565b5f5f83601f84011261207b575f5ffd5b5081356001600160401b03811115612091575f5ffd5b6020830191508360208285010111156120a8575f5ffd5b9250929050565b5f5f5f5f606085870312156120c2575f5ffd5b8435935060208501356001600160401b038111156120de575f5ffd5b6120ea8782880161206b565b9598909750949560400135949350505050565b634e487b7160e01b5f52604160045260245ffd5b5f5f5f5f60808587031215612124575f5ffd5b61212d85611f9c565b935061213b60208601611f9c565b92506040850135915060608501356001600160401b0381111561215c575f5ffd5b8501601f8101871361216c575f5ffd5b80356001600160401b03811115612185576121856120fd565b604051601f8201601f19908116603f011681016001600160401b03811182821017156121b3576121b36120fd565b6040528181528282016020018910156121ca575f5ffd5b816020840160208301375f6020838301015280935050505092959194509250565b5f5f5f604084860312156121fd575f5ffd5b8335925060208401356001600160401b03811115612219575f5ffd5b6122258682870161206b565b9497909650939450505050565b80516001600160a01b031682526020808201511515908301526040808201515f916122609085018215159052565b50606082015161227b60608501826001600160401b03169052565b506080820151608084015260a082015160a084015260c082015160c084015260e082015161010060e0850152611910610100850182611f45565b602081525f610af46020830184612232565b5f602082016020835280845180835260408501915060408160051b8601019250602086015f5b8281101561231e57603f19878603018452612309858351612232565b945060209384019391909101906001016122ed565b50929695505050505050565b5f5f6040838503121561233b575f5ffd5b61234483611f9c565b915061235260208401611f9c565b90509250929050565b600181811c9082168061236f57607f821691505b60208210810361238d57634e487b7160e01b5f52602260045260245ffd5b50919050565b634e487b7160e01b5f52603260045260245ffd5b634e487b7160e01b5f52601160045260245ffd5b60ff818116838216019081111561048a5761048a6123a7565b5f81518060208401855e5f93019283525090919050565b5f6119106123f983866123d4565b846123d4565b8181038181111561048a5761048a6123a7565b8082018082111561048a5761048a6123a7565b601f82111561076457805f5260205f20601f840160051c8101602085101561244a5750805b601f840160051c820191505b818110156116bc575f8155600101612456565b81516001600160401b03811115612482576124826120fd565b61249681612490845461235b565b84612425565b6020601f8211600181146124c8575f83156124b15750848201515b5f19600385901b1c1916600184901b1784556116bc565b5f84815260208120601f198516915b828110156124f757878501518255602094850194600190920191016124d7565b508482101561251457868401515f19600387901b60f8161c191681555b50505050600190811b01905550565b5f60018201612534576125346123a7565b5060010190565b86815260a060208201528460a0820152848660c08301375f60c086830101525f60c0601f19601f88011683010190506001600160401b03851660408301528360608301528215156080830152979650505050505050565b6001600160a01b03858116825284166020820152604081018390526080606082018190525f906125c490830184611f45565b9695505050505050565b5f602082840312156125de575f5ffd5b8151610af481611f15565b634e487b7160e01b5f52603160045260245ffdfea2646970667358221220d86b30f8f75b63689ab0ee0bf595fac34afa7824b1f91ce3231b7ea124be30f164736f6c634300081c0033",
  "linkReferences": {},
  "deployedLinkReferences": {},
  "immutableReferences": {
    "8096": [
      {
        "length": 32,
        "start": 610
      },
      {
        "length": 32,
        "start": 3274
      },
      {
        "length": 32,
        "start": 3316
      }
    ],
    "8099": [
      {
        "length": 32,
        "start": 883
      },
      {
        "length": 32,
        "start": 2300
      }
    ]
  },
  "inputSourceName": "project/contracts/ManuscriptRegistry.sol",
  "buildInfoId": "solc-0_8_28-cab9bf431f25b79e4e5114a550afc7f62ad5e059"
}